{
  "contractName": "Election",
  "abi": [
    {
      "inputs": [
        {
          "internalType": "address",
          "name": "_admin",
          "type": "address"
        }
      ],
      "stateMutability": "nonpayable",
      "type": "constructor"
    },
    {
      "anonymous": false,
      "inputs": [
        {
          "indexed": false,
          "internalType": "string",
          "name": "electionTitle",
          "type": "string"
        },
        {
          "indexed": false,
          "internalType": "address[]",
          "name": "candidateAddresses",
          "type": "address[]"
        },
        {
          "indexed": false,
          "internalType": "string[]",
          "name": "headers",
          "type": "string[]"
        },
        {
          "indexed": false,
          "internalType": "uint256[]",
          "name": "voteCounts",
          "type": "uint256[]"
        },
        {
          "indexed": false,
          "internalType": "uint256",
          "name": "winnerId",
          "type": "uint256"
        }
      ],
      "name": "ElectionResult",
      "type": "event"
    },
    {
      "inputs": [],
      "name": "admin",
      "outputs": [
        {
          "internalType": "address",
          "name": "",
          "type": "address"
        }
      ],
      "stateMutability": "view",
      "type": "function",
      "constant": true
    },
    {
      "inputs": [],
      "name": "candidateCount",
      "outputs": [
        {
          "internalType": "uint256",
          "name": "",
          "type": "uint256"
        }
      ],
      "stateMutability": "view",
      "type": "function",
      "constant": true
    },
    {
      "inputs": [
        {
          "internalType": "uint256",
          "name": "",
          "type": "uint256"
        }
      ],
      "name": "candidateDetails",
      "outputs": [
        {
          "internalType": "uint256",
          "name": "candidateId",
          "type": "uint256"
        },
        {
          "internalType": "string",
          "name": "header",
          "type": "string"
        },
        {
          "internalType": "string",
          "name": "slogan",
          "type": "string"
        },
        {
          "internalType": "uint256",
          "name": "voteCount",
          "type": "uint256"
        }
      ],
      "stateMutability": "view",
      "type": "function",
      "constant": true
    },
    {
      "inputs": [],
      "name": "currentElection",
      "outputs": [
        {
          "internalType": "string",
          "name": "electionTitle",
          "type": "string"
        },
        {
          "internalType": "string",
          "name": "adminName",
          "type": "string"
        },
        {
          "internalType": "string",
          "name": "adminEmail",
          "type": "string"
        },
        {
          "internalType": "string",
          "name": "adminTitle",
          "type": "string"
        },
        {
          "internalType": "string",
          "name": "organizationTitle",
          "type": "string"
        },
        {
          "internalType": "bool",
          "name": "isActive",
          "type": "bool"
        }
      ],
      "stateMutability": "view",
      "type": "function",
      "constant": true
    },
    {
      "inputs": [],
      "name": "end",
      "outputs": [
        {
          "internalType": "bool",
          "name": "",
          "type": "bool"
        }
      ],
      "stateMutability": "view",
      "type": "function",
      "constant": true
    },
    {
      "inputs": [],
      "name": "start",
      "outputs": [
        {
          "internalType": "bool",
          "name": "",
          "type": "bool"
        }
      ],
      "stateMutability": "view",
      "type": "function",
      "constant": true
    },
    {
      "inputs": [
        {
          "internalType": "address",
          "name": "",
          "type": "address"
        }
      ],
      "name": "voterDetails",
      "outputs": [
        {
          "internalType": "bool",
          "name": "hasVoted",
          "type": "bool"
        },
        {
          "internalType": "bool",
          "name": "isVerified",
          "type": "bool"
        },
        {
          "internalType": "bool",
          "name": "isRegistered",
          "type": "bool"
        }
      ],
      "stateMutability": "view",
      "type": "function",
      "constant": true
    },
    {
      "inputs": [
        {
          "internalType": "uint256",
          "name": "",
          "type": "uint256"
        }
      ],
      "name": "voters",
      "outputs": [
        {
          "internalType": "address",
          "name": "",
          "type": "address"
        }
      ],
      "stateMutability": "view",
      "type": "function",
      "constant": true
    },
    {
      "inputs": [
        {
          "internalType": "string",
          "name": "_electionTitle",
          "type": "string"
        },
        {
          "internalType": "string",
          "name": "_adminName",
          "type": "string"
        },
        {
          "internalType": "string",
          "name": "_adminEmail",
          "type": "string"
        },
        {
          "internalType": "string",
          "name": "_adminTitle",
          "type": "string"
        },
        {
          "internalType": "string",
          "name": "_organizationTitle",
          "type": "string"
        }
      ],
      "name": "setElectionDetails",
      "outputs": [],
      "stateMutability": "nonpayable",
      "type": "function"
    },
    {
      "inputs": [],
      "name": "getElectionDetails",
      "outputs": [
        {
          "internalType": "string",
          "name": "",
          "type": "string"
        },
        {
          "internalType": "string",
          "name": "",
          "type": "string"
        },
        {
          "internalType": "string",
          "name": "",
          "type": "string"
        },
        {
          "internalType": "string",
          "name": "",
          "type": "string"
        },
        {
          "internalType": "string",
          "name": "",
          "type": "string"
        },
        {
          "internalType": "bool",
          "name": "",
          "type": "bool"
        }
      ],
      "stateMutability": "view",
      "type": "function",
      "constant": true
    },
    {
      "inputs": [
        {
          "internalType": "string",
          "name": "_header",
          "type": "string"
        },
        {
          "internalType": "string",
          "name": "_slogan",
          "type": "string"
        }
      ],
      "name": "addCandidate",
      "outputs": [],
      "stateMutability": "nonpayable",
      "type": "function"
    },
    {
      "inputs": [
        {
          "internalType": "string",
          "name": "",
          "type": "string"
        },
        {
          "internalType": "string",
          "name": "",
          "type": "string"
        }
      ],
      "name": "registerAsVoter",
      "outputs": [],
      "stateMutability": "nonpayable",
      "type": "function"
    },
    {
      "inputs": [
        {
          "internalType": "bool",
          "name": "_status",
          "type": "bool"
        },
        {
          "internalType": "address",
          "name": "voterAddr",
          "type": "address"
        }
      ],
      "name": "verifyVoter",
      "outputs": [],
      "stateMutability": "nonpayable",
      "type": "function"
    },
    {
      "inputs": [
        {
          "internalType": "uint256",
          "name": "candidateId",
          "type": "uint256"
        }
      ],
      "name": "vote",
      "outputs": [],
      "stateMutability": "nonpayable",
      "type": "function"
    },
    {
      "inputs": [],
      "name": "endElection",
      "outputs": [],
      "stateMutability": "nonpayable",
      "type": "function"
    },
    {
      "inputs": [],
      "name": "resetElection",
      "outputs": [],
      "stateMutability": "nonpayable",
      "type": "function"
    },
    {
      "inputs": [],
      "name": "getTotalCandidates",
      "outputs": [
        {
          "internalType": "uint256",
          "name": "",
          "type": "uint256"
        }
      ],
      "stateMutability": "view",
      "type": "function",
      "constant": true
    },
    {
      "inputs": [],
      "name": "getTotalVoters",
      "outputs": [
        {
          "internalType": "uint256",
          "name": "",
          "type": "uint256"
        }
      ],
      "stateMutability": "view",
      "type": "function",
      "constant": true
    },
    {
      "inputs": [],
      "name": "getStart",
      "outputs": [
        {
          "internalType": "bool",
          "name": "",
          "type": "bool"
        }
      ],
      "stateMutability": "view",
      "type": "function",
      "constant": true
    },
    {
      "inputs": [],
      "name": "getEnd",
      "outputs": [
        {
          "internalType": "bool",
          "name": "",
          "type": "bool"
        }
      ],
      "stateMutability": "view",
      "type": "function",
      "constant": true
    }
  ],
  "bytecode": "0x608060405234801562000010575f80fd5b5060405162002c7a38038062002c7a8339818101604052810190620000369190620000e1565b805f806101000a81548173ffffffffffffffffffffffffffffffffffffffff021916908373ffffffffffffffffffffffffffffffffffffffff1602179055505062000111565b5f80fd5b5f73ffffffffffffffffffffffffffffffffffffffff82169050919050565b5f620000ab8262000080565b9050919050565b620000bd816200009f565b8114620000c8575f80fd5b50565b5f81519050620000db81620000b2565b92915050565b5f60208284031215620000f957620000f86200007c565b5b5f6200010884828501620000cb565b91505092915050565b612b5b806200011f5f395ff3fe608060405234801561000f575f80fd5b506004361061012a575f3560e01c8063a9a981a3116100ab578063ed836bc31161006f578063ed836bc3146102fb578063efbe1c1c1461031e578063f851a4401461033c578063fcae83a71461035a578063fee0d19a1461037d5761012a565b8063a9a981a314610267578063be9a655514610285578063c5292c67146102a3578063da58c7d9146102c1578063e8f30523146102f15761012a565b80635938750d116100f25780635938750d146101bc57806359f78468146101ee5780636247e532146101f8578063793cf2181461022b5780639f05a36d146102495761012a565b80630121b93f1461012e5780630deb56ab1461014a578063253e74e21461016857806326541b5614610184578063506b8e0a146101a0575b5f80fd5b61014860048036038101906101439190611abc565b610399565b005b610152610527565b60405161015f9190611af6565b60405180910390f35b610182600480360381019061017d9190611c4b565b610530565b005b61019e60048036038101906101999190611d4e565b610706565b005b6101ba60048036038101906101b59190611e53565b610873565b005b6101d660048036038101906101d19190611e91565b6109e7565b6040516101e593929190611ecb565b60405180910390f35b6101f6610a31565b005b610212600480360381019061020d9190611abc565b610dd9565b6040516102229493929190611f7a565b60405180910390f35b610233610f11565b6040516102409190611af6565b60405180910390f35b610251610f1d565b60405161025e9190611fcb565b60405180910390f35b61026f610f32565b60405161027c9190611af6565b60405180910390f35b61028d610f38565b60405161029a9190611fcb565b60405180910390f35b6102ab610f4a565b6040516102b89190611fcb565b60405180910390f35b6102db60048036038101906102d69190611abc565b610f5f565b6040516102e89190611ff3565b60405180910390f35b6102f9610f9a565b005b610303611254565b6040516103159695949392919061200c565b60405180910390f35b61032661154c565b6040516103339190611fcb565b60405180910390f35b61034461155e565b6040516103519190611ff3565b60405180910390f35b610362611581565b6040516103749695949392919061200c565b60405180910390f35b61039760048036038101906103929190611d4e565b611854565b005b5f60149054906101000a900460ff1680156103c057505f60159054906101000a900460ff16155b6103ff576040517f08c379a00000000000000000000000000000000000000000000000000000000081526004016103f6906120d8565b60405180910390fd5b5f60095f3373ffffffffffffffffffffffffffffffffffffffff1673ffffffffffffffffffffffffffffffffffffffff1681526020019081526020015f209050805f0160019054906101000a900460ff1661048f576040517f08c379a000000000000000000000000000000000000000000000000000000000815260040161048690612140565b60405180910390fd5b805f015f9054906101000a900460ff16156104df576040517f08c379a00000000000000000000000000000000000000000000000000000000081526004016104d6906121a8565b60405180910390fd5b60075f8381526020019081526020015f206003015f815480929190610503906121f3565b91905055506001815f015f6101000a81548160ff0219169083151502179055505050565b5f600854905090565b5f8054906101000a900473ffffffffffffffffffffffffffffffffffffffff1673ffffffffffffffffffffffffffffffffffffffff163373ffffffffffffffffffffffffffffffffffffffff16146105bd576040517f08c379a00000000000000000000000000000000000000000000000000000000081526004016105b4906122aa565b60405180910390fd5b5f60149054906101000a900460ff161561060c576040517f08c379a000000000000000000000000000000000000000000000000000000000815260040161060390612312565b60405180910390fd5b6040518060c001604052808681526020018581526020018481526020018381526020018281526020016001151581525060015f820151815f019081610651919061252a565b506020820151816001019081610667919061252a565b50604082015181600201908161067d919061252a565b506060820151816003019081610693919061252a565b5060808201518160040190816106a9919061252a565b5060a0820151816005015f6101000a81548160ff02191690831515021790555090505060015f60146101000a81548160ff0219169083151502179055505f8060156101000a81548160ff0219169083151502179055505050505050565b5f8054906101000a900473ffffffffffffffffffffffffffffffffffffffff1673ffffffffffffffffffffffffffffffffffffffff163373ffffffffffffffffffffffffffffffffffffffff1614610793576040517f08c379a000000000000000000000000000000000000000000000000000000000815260040161078a906122aa565b60405180910390fd5b5f60149054906101000a900460ff166107e1576040517f08c379a00000000000000000000000000000000000000000000000000000000081526004016107d890612643565b60405180910390fd5b604051806080016040528060085481526020018381526020018281526020015f81525060075f60085481526020019081526020015f205f820151815f01556020820151816001019081610834919061252a565b50604082015181600201908161084a919061252a565b506060820151816003015590505060085f81548092919061086a906121f3565b91905055505050565b5f8054906101000a900473ffffffffffffffffffffffffffffffffffffffff1673ffffffffffffffffffffffffffffffffffffffff163373ffffffffffffffffffffffffffffffffffffffff1614610900576040517f08c379a00000000000000000000000000000000000000000000000000000000081526004016108f7906122aa565b60405180910390fd5b60095f8273ffffffffffffffffffffffffffffffffffffffff1673ffffffffffffffffffffffffffffffffffffffff1681526020019081526020015f205f0160029054906101000a900460ff1661098c576040517f08c379a0000000000000000000000000000000000000000000000000000000008152600401610983906126ab565b60405180910390fd5b8160095f8373ffffffffffffffffffffffffffffffffffffffff1673ffffffffffffffffffffffffffffffffffffffff1681526020019081526020015f205f0160016101000a81548160ff0219169083151502179055505050565b6009602052805f5260405f205f91509050805f015f9054906101000a900460ff1690805f0160019054906101000a900460ff1690805f0160029054906101000a900460ff16905083565b5f8054906101000a900473ffffffffffffffffffffffffffffffffffffffff1673ffffffffffffffffffffffffffffffffffffffff163373ffffffffffffffffffffffffffffffffffffffff1614610abe576040517f08c379a0000000000000000000000000000000000000000000000000000000008152600401610ab5906122aa565b60405180910390fd5b5f60149054906101000a900460ff16610b0c576040517f08c379a0000000000000000000000000000000000000000000000000000000008152600401610b0390612643565b60405180910390fd5b60015f60156101000a81548160ff0219169083151502179055505f8060146101000a81548160ff0219169083151502179055505f60016005015f6101000a81548160ff0219169083151502179055505f60085467ffffffffffffffff811115610b7857610b77611b27565b5b604051908082528060200260200182016040528015610ba65781602001602082028036833780820191505090505b5090505f60085467ffffffffffffffff811115610bc657610bc5611b27565b5b604051908082528060200260200182016040528015610bf957816020015b6060815260200190600190039081610be45790505b5090505f60085467ffffffffffffffff811115610c1957610c18611b27565b5b604051908082528060200260200182016040528015610c475781602001602082028036833780820191505090505b5090505f805f5b600854811015610d8f5760075f8281526020019081526020015f206001018054610c779061235d565b80601f0160208091040260200160405190810160405280929190818152602001828054610ca39061235d565b8015610cee5780601f10610cc557610100808354040283529160200191610cee565b820191905f5260205f20905b815481529060010190602001808311610cd157829003601f168201915b5050505050858281518110610d0657610d056126c9565b5b602002602001018190525060075f8281526020019081526020015f2060030154848281518110610d3957610d386126c9565b5b6020026020010181815250508160075f8381526020019081526020015f20600301541115610d7c5760075f8281526020019081526020015f206003015491508092505b8080610d87906121f3565b915050610c4e565b507f5a8192a2ae49141cacd53ef145301fac5d295f1b33336b1bfa4590c4a214403c60015f0186868686604051610dca9594939291906129e8565b60405180910390a15050505050565b6007602052805f5260405f205f91509050805f015490806001018054610dfe9061235d565b80601f0160208091040260200160405190810160405280929190818152602001828054610e2a9061235d565b8015610e755780601f10610e4c57610100808354040283529160200191610e75565b820191905f5260205f20905b815481529060010190602001808311610e5857829003601f168201915b505050505090806002018054610e8a9061235d565b80601f0160208091040260200160405190810160405280929190818152602001828054610eb69061235d565b8015610f015780601f10610ed857610100808354040283529160200191610f01565b820191905f5260205f20905b815481529060010190602001808311610ee457829003601f168201915b5050505050908060030154905084565b5f600a80549050905090565b5f8060159054906101000a900460ff16905090565b60085481565b5f60149054906101000a900460ff1681565b5f8060149054906101000a900460ff16905090565b600a8181548110610f6e575f80fd5b905f5260205f20015f915054906101000a900473ffffffffffffffffffffffffffffffffffffffff1681565b5f8054906101000a900473ffffffffffffffffffffffffffffffffffffffff1673ffffffffffffffffffffffffffffffffffffffff163373ffffffffffffffffffffffffffffffffffffffff1614611027576040517f08c379a000000000000000000000000000000000000000000000000000000000815260040161101e906122aa565b60405180910390fd5b5f60159054906101000a900460ff16611075576040517f08c379a000000000000000000000000000000000000000000000000000000000815260040161106c90612a9f565b60405180910390fd5b5f5b6008548110156110d35760075f8281526020019081526020015f205f8082015f9055600182015f6110a89190611a02565b600282015f6110b79190611a02565b600382015f9055505080806110cb906121f3565b915050611077565b505f6008819055505f5b600a805490508110156111b05760095f600a8381548110611101576111006126c9565b5b905f5260205f20015f9054906101000a900473ffffffffffffffffffffffffffffffffffffffff1673ffffffffffffffffffffffffffffffffffffffff1673ffffffffffffffffffffffffffffffffffffffff1681526020019081526020015f205f8082015f6101000a81549060ff02191690555f820160016101000a81549060ff02191690555f820160026101000a81549060ff0219169055505080806111a8906121f3565b9150506110dd565b50600a5f6111be9190611a3f565b5f8060146101000a81548160ff0219169083151502179055505f8060156101000a81548160ff02191690831515021790555060015f8082015f6112019190611a02565b600182015f6112109190611a02565b600282015f61121f9190611a02565b600382015f61122e9190611a02565b600482015f61123d9190611a02565b600582015f6101000a81549060ff02191690555050565b60608060608060605f60015f016001800160016002016001600301600160040160016005015f9054906101000a900460ff168580546112929061235d565b80601f01602080910402602001604051908101604052809291908181526020018280546112be9061235d565b80156113095780601f106112e057610100808354040283529160200191611309565b820191905f5260205f20905b8154815290600101906020018083116112ec57829003601f168201915b5050505050955084805461131c9061235d565b80601f01602080910402602001604051908101604052809291908181526020018280546113489061235d565b80156113935780601f1061136a57610100808354040283529160200191611393565b820191905f5260205f20905b81548152906001019060200180831161137657829003601f168201915b505050505094508380546113a69061235d565b80601f01602080910402602001604051908101604052809291908181526020018280546113d29061235d565b801561141d5780601f106113f45761010080835404028352916020019161141d565b820191905f5260205f20905b81548152906001019060200180831161140057829003601f168201915b505050505093508280546114309061235d565b80601f016020809104026020016040519081016040528092919081815260200182805461145c9061235d565b80156114a75780601f1061147e576101008083540402835291602001916114a7565b820191905f5260205f20905b81548152906001019060200180831161148a57829003601f168201915b505050505092508180546114ba9061235d565b80601f01602080910402602001604051908101604052809291908181526020018280546114e69061235d565b80156115315780601f1061150857610100808354040283529160200191611531565b820191905f5260205f20905b81548152906001019060200180831161151457829003601f168201915b50505050509150955095509550955095509550909192939495565b5f60159054906101000a900460ff1681565b5f8054906101000a900473ffffffffffffffffffffffffffffffffffffffff1681565b6001805f0180546115919061235d565b80601f01602080910402602001604051908101604052809291908181526020018280546115bd9061235d565b80156116085780601f106115df57610100808354040283529160200191611608565b820191905f5260205f20905b8154815290600101906020018083116115eb57829003601f168201915b50505050509080600101805461161d9061235d565b80601f01602080910402602001604051908101604052809291908181526020018280546116499061235d565b80156116945780601f1061166b57610100808354040283529160200191611694565b820191905f5260205f20905b81548152906001019060200180831161167757829003601f168201915b5050505050908060020180546116a99061235d565b80601f01602080910402602001604051908101604052809291908181526020018280546116d59061235d565b80156117205780601f106116f757610100808354040283529160200191611720565b820191905f5260205f20905b81548152906001019060200180831161170357829003601f168201915b5050505050908060030180546117359061235d565b80601f01602080910402602001604051908101604052809291908181526020018280546117619061235d565b80156117ac5780601f10611783576101008083540402835291602001916117ac565b820191905f5260205f20905b81548152906001019060200180831161178f57829003601f168201915b5050505050908060040180546117c19061235d565b80601f01602080910402602001604051908101604052809291908181526020018280546117ed9061235d565b80156118385780601f1061180f57610100808354040283529160200191611838565b820191905f5260205f20905b81548152906001019060200180831161181b57829003601f168201915b505050505090806005015f9054906101000a900460ff16905086565b60095f3373ffffffffffffffffffffffffffffffffffffffff1673ffffffffffffffffffffffffffffffffffffffff1681526020019081526020015f205f0160029054906101000a900460ff16156118e1576040517f08c379a00000000000000000000000000000000000000000000000000000000081526004016118d890612b07565b60405180910390fd5b60405180606001604052805f151581526020015f151581526020016001151581525060095f3373ffffffffffffffffffffffffffffffffffffffff1673ffffffffffffffffffffffffffffffffffffffff1681526020019081526020015f205f820151815f015f6101000a81548160ff0219169083151502179055506020820151815f0160016101000a81548160ff0219169083151502179055506040820151815f0160026101000a81548160ff021916908315150217905550905050600a33908060018154018082558091505060019003905f5260205f20015f9091909190916101000a81548173ffffffffffffffffffffffffffffffffffffffff021916908373ffffffffffffffffffffffffffffffffffffffff1602179055505050565b508054611a0e9061235d565b5f825580601f10611a1f5750611a3c565b601f0160209004905f5260205f2090810190611a3b9190611a5d565b5b50565b5080545f8255905f5260205f2090810190611a5a9190611a5d565b50565b5b80821115611a74575f815f905550600101611a5e565b5090565b5f604051905090565b5f80fd5b5f80fd5b5f819050919050565b611a9b81611a89565b8114611aa5575f80fd5b50565b5f81359050611ab681611a92565b92915050565b5f60208284031215611ad157611ad0611a81565b5b5f611ade84828501611aa8565b91505092915050565b611af081611a89565b82525050565b5f602082019050611b095f830184611ae7565b92915050565b5f80fd5b5f80fd5b5f601f19601f8301169050919050565b7f4e487b71000000000000000000000000000000000000000000000000000000005f52604160045260245ffd5b611b5d82611b17565b810181811067ffffffffffffffff82111715611b7c57611b7b611b27565b5b80604052505050565b5f611b8e611a78565b9050611b9a8282611b54565b919050565b5f67ffffffffffffffff821115611bb957611bb8611b27565b5b611bc282611b17565b9050602081019050919050565b828183375f83830152505050565b5f611bef611bea84611b9f565b611b85565b905082815260208101848484011115611c0b57611c0a611b13565b5b611c16848285611bcf565b509392505050565b5f82601f830112611c3257611c31611b0f565b5b8135611c42848260208601611bdd565b91505092915050565b5f805f805f60a08688031215611c6457611c63611a81565b5b5f86013567ffffffffffffffff811115611c8157611c80611a85565b5b611c8d88828901611c1e565b955050602086013567ffffffffffffffff811115611cae57611cad611a85565b5b611cba88828901611c1e565b945050604086013567ffffffffffffffff811115611cdb57611cda611a85565b5b611ce788828901611c1e565b935050606086013567ffffffffffffffff811115611d0857611d07611a85565b5b611d1488828901611c1e565b925050608086013567ffffffffffffffff811115611d3557611d34611a85565b5b611d4188828901611c1e565b9150509295509295909350565b5f8060408385031215611d6457611d63611a81565b5b5f83013567ffffffffffffffff811115611d8157611d80611a85565b5b611d8d85828601611c1e565b925050602083013567ffffffffffffffff811115611dae57611dad611a85565b5b611dba85828601611c1e565b9150509250929050565b5f8115159050919050565b611dd881611dc4565b8114611de2575f80fd5b50565b5f81359050611df381611dcf565b92915050565b5f73ffffffffffffffffffffffffffffffffffffffff82169050919050565b5f611e2282611df9565b9050919050565b611e3281611e18565b8114611e3c575f80fd5b50565b5f81359050611e4d81611e29565b92915050565b5f8060408385031215611e6957611e68611a81565b5b5f611e7685828601611de5565b9250506020611e8785828601611e3f565b9150509250929050565b5f60208284031215611ea657611ea5611a81565b5b5f611eb384828501611e3f565b91505092915050565b611ec581611dc4565b82525050565b5f606082019050611ede5f830186611ebc565b611eeb6020830185611ebc565b611ef86040830184611ebc565b949350505050565b5f81519050919050565b5f82825260208201905092915050565b5f5b83811015611f37578082015181840152602081019050611f1c565b5f8484015250505050565b5f611f4c82611f00565b611f568185611f0a565b9350611f66818560208601611f1a565b611f6f81611b17565b840191505092915050565b5f608082019050611f8d5f830187611ae7565b8181036020830152611f9f8186611f42565b90508181036040830152611fb38185611f42565b9050611fc26060830184611ae7565b95945050505050565b5f602082019050611fde5f830184611ebc565b92915050565b611fed81611e18565b82525050565b5f6020820190506120065f830184611fe4565b92915050565b5f60c0820190508181035f8301526120248189611f42565b905081810360208301526120388188611f42565b9050818103604083015261204c8187611f42565b905081810360608301526120608186611f42565b905081810360808301526120748185611f42565b905061208360a0830184611ebc565b979650505050505050565b7f566f74696e67206e6f7420616c6c6f776564206e6f77000000000000000000005f82015250565b5f6120c2601683611f0a565b91506120cd8261208e565b602082019050919050565b5f6020820190508181035f8301526120ef816120b6565b9050919050565b7f4e6f7420766572696669656400000000000000000000000000000000000000005f82015250565b5f61212a600c83611f0a565b9150612135826120f6565b602082019050919050565b5f6020820190508181035f8301526121578161211e565b9050919050565b7f416c726561647920766f746564000000000000000000000000000000000000005f82015250565b5f612192600d83611f0a565b915061219d8261215e565b602082019050919050565b5f6020820190508181035f8301526121bf81612186565b9050919050565b7f4e487b71000000000000000000000000000000000000000000000000000000005f52601160045260245ffd5b5f6121fd82611a89565b91507fffffffffffffffffffffffffffffffffffffffffffffffffffffffffffffffff820361222f5761222e6121c6565b5b600182019050919050565b7f4f6e6c792061646d696e2063616e20706572666f726d207468697320616374695f8201527f6f6e000000000000000000000000000000000000000000000000000000000000602082015250565b5f612294602283611f0a565b915061229f8261223a565b604082019050919050565b5f6020820190508181035f8301526122c181612288565b9050919050565b7f456c656374696f6e20616c726561647920696e2070726f6772657373000000005f82015250565b5f6122fc601c83611f0a565b9150612307826122c8565b602082019050919050565b5f6020820190508181035f830152612329816122f0565b9050919050565b7f4e487b71000000000000000000000000000000000000000000000000000000005f52602260045260245ffd5b5f600282049050600182168061237457607f821691505b60208210810361238757612386612330565b5b50919050565b5f819050815f5260205f209050919050565b5f6020601f8301049050919050565b5f82821b905092915050565b5f600883026123e97fffffffffffffffffffffffffffffffffffffffffffffffffffffffffffffffff826123ae565b6123f386836123ae565b95508019841693508086168417925050509392505050565b5f819050919050565b5f61242e61242961242484611a89565b61240b565b611a89565b9050919050565b5f819050919050565b61244783612414565b61245b61245382612435565b8484546123ba565b825550505050565b5f90565b61246f612463565b61247a81848461243e565b505050565b5b8181101561249d576124925f82612467565b600181019050612480565b5050565b601f8211156124e2576124b38161238d565b6124bc8461239f565b810160208510156124cb578190505b6124df6124d78561239f565b83018261247f565b50505b505050565b5f82821c905092915050565b5f6125025f19846008026124e7565b1980831691505092915050565b5f61251a83836124f3565b9150826002028217905092915050565b61253382611f00565b67ffffffffffffffff81111561254c5761254b611b27565b5b612556825461235d565b6125618282856124a1565b5f60209050601f831160018114612592575f8415612580578287015190505b61258a858261250f565b8655506125f1565b601f1984166125a08661238d565b5f5b828110156125c7578489015182556001820191506020850194506020810190506125a2565b868310156125e457848901516125e0601f8916826124f3565b8355505b6001600288020188555050505b505050505050565b7f456c656374696f6e206e6f7420737461727465640000000000000000000000005f82015250565b5f61262d601483611f0a565b9150612638826125f9565b602082019050919050565b5f6020820190508181035f83015261265a81612621565b9050919050565b7f4e6f7420726567697374657265640000000000000000000000000000000000005f82015250565b5f612695600e83611f0a565b91506126a082612661565b602082019050919050565b5f6020820190508181035f8301526126c281612689565b9050919050565b7f4e487b71000000000000000000000000000000000000000000000000000000005f52603260045260245ffd5b5f81546127028161235d565b61270c8186611f0a565b9450600182165f8114612726576001811461273c5761276e565b60ff19831686528115156020028601935061276e565b6127458561238d565b5f5b8381101561276657815481890152600182019150602081019050612747565b808801955050505b50505092915050565b5f81519050919050565b5f82825260208201905092915050565b5f819050602082019050919050565b6127a981611e18565b82525050565b5f6127ba83836127a0565b60208301905092915050565b5f602082019050919050565b5f6127dc82612777565b6127e68185612781565b93506127f183612791565b805f5b8381101561282157815161280888826127af565b9750612813836127c6565b9250506001810190506127f4565b5085935050505092915050565b5f81519050919050565b5f82825260208201905092915050565b5f819050602082019050919050565b5f82825260208201905092915050565b5f61287182611f00565b61287b8185612857565b935061288b818560208601611f1a565b61289481611b17565b840191505092915050565b5f6128aa8383612867565b905092915050565b5f602082019050919050565b5f6128c88261282e565b6128d28185612838565b9350836020820285016128e485612848565b805f5b8581101561291f5784840389528151612900858261289f565b945061290b836128b2565b925060208a019950506001810190506128e7565b50829750879550505050505092915050565b5f81519050919050565b5f82825260208201905092915050565b5f819050602082019050919050565b61296381611a89565b82525050565b5f612974838361295a565b60208301905092915050565b5f602082019050919050565b5f61299682612931565b6129a0818561293b565b93506129ab8361294b565b805f5b838110156129db5781516129c28882612969565b97506129cd83612980565b9250506001810190506129ae565b5085935050505092915050565b5f60a0820190508181035f830152612a0081886126f6565b90508181036020830152612a1481876127d2565b90508181036040830152612a2881866128be565b90508181036060830152612a3c818561298c565b9050612a4b6080830184611ae7565b9695505050505050565b7f456c656374696f6e206d75737420656e642066697273740000000000000000005f82015250565b5f612a89601783611f0a565b9150612a9482612a55565b602082019050919050565b5f6020820190508181035f830152612ab681612a7d565b9050919050565b7f416c7265616479207265676973746572656400000000000000000000000000005f82015250565b5f612af1601283611f0a565b9150612afc82612abd565b602082019050919050565b5f6020820190508181035f830152612b1e81612ae5565b905091905056fea2646970667358221220557cf8dac7d05889221b7c278cf86512d1def605fb2435d85f4347b2c5163fc964736f6c63430008150033",
  "immutableReferences": {},
  "source": "// SPDX-License-Identifier: UNLICENSED\r\npragma solidity ^0.8.21;\r\n\r\ncontract Election {\r\n    address public admin;\r\n    bool public start;\r\n    bool public end;\r\n\r\n    constructor(address _admin) {\r\n        admin = _admin;\r\n    }\r\n\r\n    modifier onlyAdmin() {\r\n        require(msg.sender == admin, \"Only admin can perform this action\");\r\n        _;\r\n    }\r\n\r\n    struct Candidate {\r\n        uint256 candidateId;\r\n        string header;\r\n        string slogan;\r\n        uint256 voteCount;\r\n    }\r\n\r\n    struct Voter {\r\n        bool hasVoted;\r\n        bool isVerified;\r\n        bool isRegistered;\r\n    }\r\n\r\n    struct ElectionDetails {\r\n        string electionTitle;\r\n        string adminName;\r\n        string adminEmail;\r\n        string adminTitle;\r\n        string organizationTitle;\r\n        bool isActive;\r\n    }\r\n\r\n    ElectionDetails public currentElection;\r\n\r\n    mapping(uint256 => Candidate) public candidateDetails;\r\n    uint256 public candidateCount;\r\n\r\n    mapping(address => Voter) public voterDetails;\r\n    address[] public voters;\r\n\r\n    ///  Event to store election result for frontend (off-chain)\r\n    event ElectionResult(\r\n        string electionTitle,\r\n        address[] candidateAddresses,\r\n        string[] headers,\r\n        uint256[] voteCounts,\r\n        uint256 winnerId\r\n    );\r\n\r\n    ///  Set up a new election\r\n    function setElectionDetails(\r\n        string memory _electionTitle,\r\n        string memory _adminName,\r\n        string memory _adminEmail,\r\n        string memory _adminTitle,\r\n        string memory _organizationTitle\r\n    ) public onlyAdmin {\r\n        require(!start, \"Election already in progress\");\r\n        currentElection = ElectionDetails({\r\n            electionTitle: _electionTitle,\r\n            adminName: _adminName,\r\n            adminEmail: _adminEmail,\r\n            adminTitle: _adminTitle,\r\n            organizationTitle: _organizationTitle,\r\n            isActive: true\r\n        });\r\n        start = true;\r\n        end = false;\r\n    }\r\n\r\n    function getElectionDetails() public view returns (\r\n        string memory, string memory, string memory, string memory, string memory, bool\r\n    ) {\r\n        return (\r\n            currentElection.electionTitle,\r\n            currentElection.adminName,\r\n            currentElection.adminEmail,\r\n            currentElection.adminTitle,\r\n            currentElection.organizationTitle,\r\n            currentElection.isActive\r\n        );\r\n    }\r\n\r\n    function addCandidate(string memory _header, string memory _slogan) public onlyAdmin {\r\n        require(start, \"Election not started\");\r\n        candidateDetails[candidateCount] = Candidate({\r\n            candidateId: candidateCount,\r\n            header: _header,\r\n            slogan: _slogan,\r\n            voteCount: 0\r\n        });\r\n        candidateCount++;\r\n    }\r\n\r\n    function registerAsVoter(string memory, string memory) public {\r\n        require(!voterDetails[msg.sender].isRegistered, \"Already registered\");\r\n        voterDetails[msg.sender] = Voter({\r\n            hasVoted: false,\r\n            isVerified: false,\r\n            isRegistered: true\r\n        });\r\n        voters.push(msg.sender);\r\n    }\r\n\r\n    function verifyVoter(bool _status, address voterAddr) public onlyAdmin {\r\n        require(voterDetails[voterAddr].isRegistered, \"Not registered\");\r\n        voterDetails[voterAddr].isVerified = _status;\r\n    }\r\n\r\n    function vote(uint256 candidateId) public {\r\n        require(start && !end, \"Voting not allowed now\");\r\n        Voter storage voter = voterDetails[msg.sender];\r\n        require(voter.isVerified, \"Not verified\");\r\n        require(!voter.hasVoted, \"Already voted\");\r\n        candidateDetails[candidateId].voteCount++;\r\n        voter.hasVoted = true;\r\n    }\r\n\r\n    function endElection() public onlyAdmin {\r\n        require(start, \"Election not started\");\r\n        end = true;\r\n        start = false;\r\n        currentElection.isActive = false;\r\n\r\n        address[] memory candidateAddresses = new address[](candidateCount);\r\n        string[] memory headers = new string[](candidateCount);\r\n        uint256[] memory votes = new uint256[](candidateCount);\r\n\r\n        uint256 winnerId = 0;\r\n        uint256 maxVotes = 0;\r\n\r\n        for (uint256 i = 0; i < candidateCount; i++) {\r\n            headers[i] = candidateDetails[i].header;\r\n            votes[i] = candidateDetails[i].voteCount;\r\n            if (candidateDetails[i].voteCount > maxVotes) {\r\n                maxVotes = candidateDetails[i].voteCount;\r\n                winnerId = i;\r\n            }\r\n        }\r\n\r\n        emit ElectionResult(\r\n            currentElection.electionTitle,\r\n            candidateAddresses, // Can be removed or replaced with candidateIds\r\n            headers,\r\n            votes,\r\n            winnerId\r\n        );\r\n    }\r\n\r\n    function resetElection() public onlyAdmin {\r\n        require(end, \"Election must end first\");\r\n\r\n        // Delete candidates\r\n        for (uint256 i = 0; i < candidateCount; i++) {\r\n            delete candidateDetails[i];\r\n        }\r\n        candidateCount = 0;\r\n\r\n        // Delete voters\r\n        for (uint256 i = 0; i < voters.length; i++) {\r\n            delete voterDetails[voters[i]];\r\n        }\r\n        delete voters;\r\n\r\n        start = false;\r\n        end = false;\r\n        delete currentElection;\r\n    }\r\n\r\n    function getTotalCandidates() public view returns (uint256) {\r\n        return candidateCount;\r\n    }\r\n\r\n    function getTotalVoters() public view returns (uint256) {\r\n        return voters.length;\r\n    }\r\n\r\n    function getStart() public view returns (bool) {\r\n        return start;\r\n    }\r\n\r\n    function getEnd() public view returns (bool) {\r\n        return end;\r\n    }\r\n}\r\n",
  "sourcePath": "C:\\Users\\nshas\\OneDrive\\Desktop\\prototype\\contracts\\Election.sol",
  "compiler": {
    "name": "solc",
    "version": "0.8.21+commit.d9974bed.Emscripten.clang"
  },
  "schemaVersion": "3.4.16",
  "updatedAt": "2025-05-18T13:48:37.997Z",
  "networkType": "ethereum",
  "devdoc": {
    "kind": "dev",
    "methods": {},
    "version": 1
  },
  "userdoc": {
    "events": {
      "ElectionResult(string,address[],string[],uint256[],uint256)": {
        "notice": " Event to store election result for frontend (off-chain)"
      }
    },
    "kind": "user",
    "methods": {
      "setElectionDetails(string,string,string,string,string)": {
        "notice": " Set up a new election"
      }
    },
    "version": 1
  }
}