{
  "contractName": "Election",
  "abi": [
    {
      "inputs": [
        {
          "internalType": "address",
          "name": "_admin",
          "type": "address"
        }
      ],
      "stateMutability": "nonpayable",
      "type": "constructor"
    },
    {
      "inputs": [],
      "name": "admin",
      "outputs": [
        {
          "internalType": "address",
          "name": "",
          "type": "address"
        }
      ],
      "stateMutability": "view",
      "type": "function",
      "constant": true
    },
    {
      "inputs": [
        {
          "internalType": "uint256",
          "name": "",
          "type": "uint256"
        }
      ],
      "name": "candidateDetails",
      "outputs": [
        {
          "internalType": "uint256",
          "name": "candidateId",
          "type": "uint256"
        },
        {
          "internalType": "string",
          "name": "header",
          "type": "string"
        },
        {
          "internalType": "string",
          "name": "slogan",
          "type": "string"
        },
        {
          "internalType": "uint256",
          "name": "voteCount",
          "type": "uint256"
        }
      ],
      "stateMutability": "view",
      "type": "function",
      "constant": true
    },
    {
      "inputs": [
        {
          "internalType": "uint256",
          "name": "",
          "type": "uint256"
        }
      ],
      "name": "elections",
      "outputs": [
        {
          "internalType": "string",
          "name": "adminName",
          "type": "string"
        },
        {
          "internalType": "string",
          "name": "adminEmail",
          "type": "string"
        },
        {
          "internalType": "string",
          "name": "adminTitle",
          "type": "string"
        },
        {
          "internalType": "string",
          "name": "electionTitle",
          "type": "string"
        },
        {
          "internalType": "string",
          "name": "organizationTitle",
          "type": "string"
        },
        {
          "internalType": "bool",
          "name": "isActive",
          "type": "bool"
        }
      ],
      "stateMutability": "view",
      "type": "function",
      "constant": true
    },
    {
      "inputs": [
        {
          "internalType": "address",
          "name": "",
          "type": "address"
        }
      ],
      "name": "voterDetails",
      "outputs": [
        {
          "internalType": "address",
          "name": "voterAddress",
          "type": "address"
        },
        {
          "internalType": "string",
          "name": "name",
          "type": "string"
        },
        {
          "internalType": "string",
          "name": "phone",
          "type": "string"
        },
        {
          "internalType": "bool",
          "name": "isVerified",
          "type": "bool"
        },
        {
          "internalType": "bool",
          "name": "hasVoted",
          "type": "bool"
        },
        {
          "internalType": "bool",
          "name": "isRegistered",
          "type": "bool"
        }
      ],
      "stateMutability": "view",
      "type": "function",
      "constant": true
    },
    {
      "inputs": [
        {
          "internalType": "uint256",
          "name": "",
          "type": "uint256"
        }
      ],
      "name": "voters",
      "outputs": [
        {
          "internalType": "address",
          "name": "",
          "type": "address"
        }
      ],
      "stateMutability": "view",
      "type": "function",
      "constant": true
    },
    {
      "inputs": [
        {
          "internalType": "string",
          "name": "_header",
          "type": "string"
        },
        {
          "internalType": "string",
          "name": "_slogan",
          "type": "string"
        }
      ],
      "name": "addCandidate",
      "outputs": [],
      "stateMutability": "nonpayable",
      "type": "function"
    },
    {
      "inputs": [
        {
          "internalType": "string",
          "name": "_adminName",
          "type": "string"
        },
        {
          "internalType": "string",
          "name": "_adminEmail",
          "type": "string"
        },
        {
          "internalType": "string",
          "name": "_adminTitle",
          "type": "string"
        },
        {
          "internalType": "string",
          "name": "_electionTitle",
          "type": "string"
        },
        {
          "internalType": "string",
          "name": "_organizationTitle",
          "type": "string"
        }
      ],
      "name": "setElectionDetails",
      "outputs": [],
      "stateMutability": "nonpayable",
      "type": "function"
    },
    {
      "inputs": [
        {
          "internalType": "uint256",
          "name": "electionIndex",
          "type": "uint256"
        }
      ],
      "name": "getElectionDetails",
      "outputs": [
        {
          "internalType": "string",
          "name": "adminName",
          "type": "string"
        },
        {
          "internalType": "string",
          "name": "adminEmail",
          "type": "string"
        },
        {
          "internalType": "string",
          "name": "adminTitle",
          "type": "string"
        },
        {
          "internalType": "string",
          "name": "electionTitle",
          "type": "string"
        },
        {
          "internalType": "string",
          "name": "organizationTitle",
          "type": "string"
        },
        {
          "internalType": "bool",
          "name": "isActive",
          "type": "bool"
        }
      ],
      "stateMutability": "view",
      "type": "function",
      "constant": true
    },
    {
      "inputs": [],
      "name": "getTotalElections",
      "outputs": [
        {
          "internalType": "uint256",
          "name": "",
          "type": "uint256"
        }
      ],
      "stateMutability": "view",
      "type": "function",
      "constant": true
    },
    {
      "inputs": [],
      "name": "getTotalCandidate",
      "outputs": [
        {
          "internalType": "uint256",
          "name": "",
          "type": "uint256"
        }
      ],
      "stateMutability": "view",
      "type": "function",
      "constant": true
    },
    {
      "inputs": [],
      "name": "getTotalVoter",
      "outputs": [
        {
          "internalType": "uint256",
          "name": "",
          "type": "uint256"
        }
      ],
      "stateMutability": "view",
      "type": "function",
      "constant": true
    },
    {
      "inputs": [
        {
          "internalType": "string",
          "name": "_name",
          "type": "string"
        },
        {
          "internalType": "string",
          "name": "_phone",
          "type": "string"
        }
      ],
      "name": "registerAsVoter",
      "outputs": [],
      "stateMutability": "nonpayable",
      "type": "function"
    },
    {
      "inputs": [
        {
          "internalType": "bool",
          "name": "_verifiedStatus",
          "type": "bool"
        },
        {
          "internalType": "address",
          "name": "voterAddress",
          "type": "address"
        }
      ],
      "name": "verifyVoter",
      "outputs": [],
      "stateMutability": "nonpayable",
      "type": "function"
    },
    {
      "inputs": [
        {
          "internalType": "uint256",
          "name": "candidateId",
          "type": "uint256"
        }
      ],
      "name": "vote",
      "outputs": [],
      "stateMutability": "nonpayable",
      "type": "function"
    },
    {
      "inputs": [
        {
          "internalType": "uint256",
          "name": "electionIndex",
          "type": "uint256"
        }
      ],
      "name": "endElection",
      "outputs": [],
      "stateMutability": "nonpayable",
      "type": "function"
    },
    {
      "inputs": [
        {
          "internalType": "uint256",
          "name": "electionIndex",
          "type": "uint256"
        }
      ],
      "name": "removeElection",
      "outputs": [],
      "stateMutability": "nonpayable",
      "type": "function"
    },
    {
      "inputs": [],
      "name": "resetElection",
      "outputs": [],
      "stateMutability": "nonpayable",
      "type": "function"
    },
    {
      "inputs": [],
      "name": "getStart",
      "outputs": [
        {
          "internalType": "bool",
          "name": "",
          "type": "bool"
        }
      ],
      "stateMutability": "view",
      "type": "function",
      "constant": true
    },
    {
      "inputs": [],
      "name": "getEnd",
      "outputs": [
        {
          "internalType": "bool",
          "name": "",
          "type": "bool"
        }
      ],
      "stateMutability": "view",
      "type": "function",
      "constant": true
    }
  ],
  "bytecode": "0x608060405234801562000010575f80fd5b5060405162002c9838038062002c98833981810160405281019062000036919062000122565b805f806101000a81548173ffffffffffffffffffffffffffffffffffffffff021916908373ffffffffffffffffffffffffffffffffffffffff1602179055505f6001819055505f6002819055505f60035f6101000a81548160ff0219169083151502179055505f600360016101000a81548160ff0219169083151502179055505062000152565b5f80fd5b5f73ffffffffffffffffffffffffffffffffffffffff82169050919050565b5f620000ec82620000c1565b9050919050565b620000fe81620000e0565b811462000109575f80fd5b50565b5f815190506200011c81620000f3565b92915050565b5f602082840312156200013a5762000139620000bd565b5b5f62000149848285016200010c565b91505092915050565b612b3880620001605f395ff3fe608060405234801561000f575f80fd5b506004361061011f575f3560e01c80639c98bcbb116100ab578063da58c7d91161006f578063da58c7d9146102fe578063e8f305231461032e578063f604992414610338578063f851a4401461036d578063fee0d19a1461038b5761011f565b80639c98bcbb1461026c5780639f05a36d14610288578063a9392e0c146102a6578063c5292c67146102c4578063c830b8cc146102e25761011f565b8063506b8e0a116100f2578063506b8e0a146101955780635938750d146101b15780635e6fef01146101e65780636247e5321461021b57806364d198a11461024e5761011f565b80630121b93f146101235780630b93400e1461013f578063253e74e21461015d57806326541b5614610179575b5f80fd5b61013d60048036038101906101389190611c9b565b6103a7565b005b6101476105fe565b6040516101549190611cd5565b60405180910390f35b61017760048036038101906101729190611e2a565b610607565b005b610193600480360381019061018e9190611f2d565b6107b9565b005b6101af60048036038101906101aa9190612032565b6108de565b005b6101cb60048036038101906101c69190612070565b6109c6565b6040516101dd96959493929190612133565b60405180910390f35b61020060048036038101906101fb9190611c9b565b610b4f565b604051610212969594939291906121a0565b60405180910390f35b61023560048036038101906102309190611c9b565b610e40565b6040516102459493929190612222565b60405180910390f35b610256610f78565b6040516102639190611cd5565b60405180910390f35b61028660048036038101906102819190611c9b565b610f81565b005b61029061107f565b60405161029d9190612273565b60405180910390f35b6102ae611095565b6040516102bb9190611cd5565b60405180910390f35b6102cc6110a1565b6040516102d99190612273565b60405180910390f35b6102fc60048036038101906102f79190611c9b565b6110b6565b005b61031860048036038101906103139190611c9b565b61134f565b604051610325919061228c565b60405180910390f35b61033661138a565b005b610352600480360381019061034d9190611c9b565b611638565b604051610364969594939291906121a0565b60405180910390f35b610375611950565b604051610382919061228c565b60405180910390f35b6103a560048036038101906103a09190611f2d565b611973565b005b5f151560075f3373ffffffffffffffffffffffffffffffffffffffff1673ffffffffffffffffffffffffffffffffffffffff1681526020019081526020015f2060030160019054906101000a900460ff1615151461043a576040517f08c379a0000000000000000000000000000000000000000000000000000000008152600401610431906122ef565b60405180910390fd5b6001151560075f3373ffffffffffffffffffffffffffffffffffffffff1673ffffffffffffffffffffffffffffffffffffffff1681526020019081526020015f206003015f9054906101000a900460ff161515146104cd576040517f08c379a00000000000000000000000000000000000000000000000000000000081526004016104c490612357565b60405180910390fd5b6001151560035f9054906101000a900460ff16151514610522576040517f08c379a0000000000000000000000000000000000000000000000000000000008152600401610519906123bf565b60405180910390fd5b5f1515600360019054906101000a900460ff16151514610577576040517f08c379a000000000000000000000000000000000000000000000000000000000815260040161056e90612427565b60405180910390fd5b600160045f8381526020019081526020015f206003015f82825461059b9190612472565b92505081905550600160075f3373ffffffffffffffffffffffffffffffffffffffff1673ffffffffffffffffffffffffffffffffffffffff1681526020019081526020015f2060030160016101000a81548160ff02191690831515021790555050565b5f600254905090565b5f8054906101000a900473ffffffffffffffffffffffffffffffffffffffff1673ffffffffffffffffffffffffffffffffffffffff163373ffffffffffffffffffffffffffffffffffffffff1614610694576040517f08c379a000000000000000000000000000000000000000000000000000000000815260040161068b90612515565b60405180910390fd5b5f6040518060c00160405280878152602001868152602001858152602001848152602001838152602001600115158152509050600581908060018154018082558091505060019003905f5260205f2090600602015f909190919091505f820151815f019081610703919061272d565b506020820151816001019081610719919061272d565b50604082015181600201908161072f919061272d565b506060820151816003019081610745919061272d565b50608082015181600401908161075b919061272d565b5060a0820151816005015f6101000a81548160ff0219169083151502179055505050600160035f6101000a81548160ff0219169083151502179055505f600360016101000a81548160ff021916908315150217905550505050505050565b5f8054906101000a900473ffffffffffffffffffffffffffffffffffffffff1673ffffffffffffffffffffffffffffffffffffffff163373ffffffffffffffffffffffffffffffffffffffff1614610846576040517f08c379a000000000000000000000000000000000000000000000000000000000815260040161083d90612515565b60405180910390fd5b5f604051806080016040528060015481526020018481526020018381526020015f81525090508060045f60015481526020019081526020015f205f820151815f0155602082015181600101908161089d919061272d565b5060408201518160020190816108b3919061272d565b50606082015181600301559050506001805f8282546108d29190612472565b92505081905550505050565b5f8054906101000a900473ffffffffffffffffffffffffffffffffffffffff1673ffffffffffffffffffffffffffffffffffffffff163373ffffffffffffffffffffffffffffffffffffffff161461096b576040517f08c379a000000000000000000000000000000000000000000000000000000000815260040161096290612515565b60405180910390fd5b8160075f8373ffffffffffffffffffffffffffffffffffffffff1673ffffffffffffffffffffffffffffffffffffffff1681526020019081526020015f206003015f6101000a81548160ff0219169083151502179055505050565b6007602052805f5260405f205f91509050805f015f9054906101000a900473ffffffffffffffffffffffffffffffffffffffff1690806001018054610a0a90612560565b80601f0160208091040260200160405190810160405280929190818152602001828054610a3690612560565b8015610a815780601f10610a5857610100808354040283529160200191610a81565b820191905f5260205f20905b815481529060010190602001808311610a6457829003601f168201915b505050505090806002018054610a9690612560565b80601f0160208091040260200160405190810160405280929190818152602001828054610ac290612560565b8015610b0d5780601f10610ae457610100808354040283529160200191610b0d565b820191905f5260205f20905b815481529060010190602001808311610af057829003601f168201915b505050505090806003015f9054906101000a900460ff16908060030160019054906101000a900460ff16908060030160029054906101000a900460ff16905086565b60058181548110610b5e575f80fd5b905f5260205f2090600602015f91509050805f018054610b7d90612560565b80601f0160208091040260200160405190810160405280929190818152602001828054610ba990612560565b8015610bf45780601f10610bcb57610100808354040283529160200191610bf4565b820191905f5260205f20905b815481529060010190602001808311610bd757829003601f168201915b505050505090806001018054610c0990612560565b80601f0160208091040260200160405190810160405280929190818152602001828054610c3590612560565b8015610c805780601f10610c5757610100808354040283529160200191610c80565b820191905f5260205f20905b815481529060010190602001808311610c6357829003601f168201915b505050505090806002018054610c9590612560565b80601f0160208091040260200160405190810160405280929190818152602001828054610cc190612560565b8015610d0c5780601f10610ce357610100808354040283529160200191610d0c565b820191905f5260205f20905b815481529060010190602001808311610cef57829003601f168201915b505050505090806003018054610d2190612560565b80601f0160208091040260200160405190810160405280929190818152602001828054610d4d90612560565b8015610d985780601f10610d6f57610100808354040283529160200191610d98565b820191905f5260205f20905b815481529060010190602001808311610d7b57829003601f168201915b505050505090806004018054610dad90612560565b80601f0160208091040260200160405190810160405280929190818152602001828054610dd990612560565b8015610e245780601f10610dfb57610100808354040283529160200191610e24565b820191905f5260205f20905b815481529060010190602001808311610e0757829003601f168201915b505050505090806005015f9054906101000a900460ff16905086565b6004602052805f5260405f205f91509050805f015490806001018054610e6590612560565b80601f0160208091040260200160405190810160405280929190818152602001828054610e9190612560565b8015610edc5780601f10610eb357610100808354040283529160200191610edc565b820191905f5260205f20905b815481529060010190602001808311610ebf57829003601f168201915b505050505090806002018054610ef190612560565b80601f0160208091040260200160405190810160405280929190818152602001828054610f1d90612560565b8015610f685780601f10610f3f57610100808354040283529160200191610f68565b820191905f5260205f20905b815481529060010190602001808311610f4b57829003601f168201915b5050505050908060030154905084565b5f600154905090565b5f8054906101000a900473ffffffffffffffffffffffffffffffffffffffff1673ffffffffffffffffffffffffffffffffffffffff163373ffffffffffffffffffffffffffffffffffffffff161461100e576040517f08c379a000000000000000000000000000000000000000000000000000000000815260040161100590612515565b60405180910390fd5b5f60058281548110611023576110226127fc565b5b905f5260205f2090600602016005015f6101000a81548160ff0219169083151502179055506001600360016101000a81548160ff0219169083151502179055505f60035f6101000a81548160ff02191690831515021790555050565b5f600360019054906101000a900460ff16905090565b5f600580549050905090565b5f60035f9054906101000a900460ff16905090565b5f8054906101000a900473ffffffffffffffffffffffffffffffffffffffff1673ffffffffffffffffffffffffffffffffffffffff163373ffffffffffffffffffffffffffffffffffffffff1614611143576040517f08c379a000000000000000000000000000000000000000000000000000000000815260040161113a90612515565b60405180910390fd5b60058181548110611157576111566127fc565b5b905f5260205f2090600602016005015f9054906101000a900460ff16156111b3576040517f08c379a00000000000000000000000000000000000000000000000000000000081526004016111aa90612873565b60405180910390fd5b5f8190505b60016005805490506111ca9190612891565b8110156112c55760056001826111e09190612472565b815481106111f1576111f06127fc565b5b905f5260205f20906006020160058281548110611211576112106127fc565b5b905f5260205f2090600602015f8201815f01908161122f91906128d9565b506001820181600101908161124491906128d9565b506002820181600201908161125991906128d9565b506003820181600301908161126e91906128d9565b506004820181600401908161128391906128d9565b50600582015f9054906101000a900460ff16816005015f6101000a81548160ff02191690831515021790555090505080806112bd906129be565b9150506111b8565b5060058054806112d8576112d7612a05565b5b600190038181905f5260205f2090600602015f8082015f6112f99190611be1565b600182015f6113089190611be1565b600282015f6113179190611be1565b600382015f6113269190611be1565b600482015f6113359190611be1565b600582015f6101000a81549060ff02191690555050905550565b6006818154811061135e575f80fd5b905f5260205f20015f915054906101000a900473ffffffffffffffffffffffffffffffffffffffff1681565b5f8054906101000a900473ffffffffffffffffffffffffffffffffffffffff1673ffffffffffffffffffffffffffffffffffffffff163373ffffffffffffffffffffffffffffffffffffffff1614611417576040517f08c379a000000000000000000000000000000000000000000000000000000000815260040161140e90612515565b60405180910390fd5b60011515600360019054906101000a900460ff1615151461146d576040517f08c379a000000000000000000000000000000000000000000000000000000000815260040161146490612a7c565b60405180910390fd5b5f5b6001548110156114cb5760045f8281526020019081526020015f205f8082015f9055600182015f6114a09190611be1565b600282015f6114af9190611be1565b600382015f9055505080806114c3906129be565b91505061146f565b505f6001819055505f5b6006805490508110156115ee5760075f600683815481106114f9576114f86127fc565b5b905f5260205f20015f9054906101000a900473ffffffffffffffffffffffffffffffffffffffff1673ffffffffffffffffffffffffffffffffffffffff1673ffffffffffffffffffffffffffffffffffffffff1681526020019081526020015f205f8082015f6101000a81549073ffffffffffffffffffffffffffffffffffffffff0219169055600182015f61158f9190611be1565b600282015f61159e9190611be1565b600382015f6101000a81549060ff02191690556003820160016101000a81549060ff02191690556003820160026101000a81549060ff0219169055505080806115e6906129be565b9150506114d5565b5060065f6115fc9190611c1e565b5f6002819055505f60035f6101000a81548160ff0219169083151502179055505f600360016101000a81548160ff021916908315150217905550565b60608060608060605f8060058881548110611656576116556127fc565b5b905f5260205f2090600602019050805f0181600101826002018360030184600401856005015f9054906101000a900460ff1685805461169490612560565b80601f01602080910402602001604051908101604052809291908181526020018280546116c090612560565b801561170b5780601f106116e25761010080835404028352916020019161170b565b820191905f5260205f20905b8154815290600101906020018083116116ee57829003601f168201915b5050505050955084805461171e90612560565b80601f016020809104026020016040519081016040528092919081815260200182805461174a90612560565b80156117955780601f1061176c57610100808354040283529160200191611795565b820191905f5260205f20905b81548152906001019060200180831161177857829003601f168201915b505050505094508380546117a890612560565b80601f01602080910402602001604051908101604052809291908181526020018280546117d490612560565b801561181f5780601f106117f65761010080835404028352916020019161181f565b820191905f5260205f20905b81548152906001019060200180831161180257829003601f168201915b5050505050935082805461183290612560565b80601f016020809104026020016040519081016040528092919081815260200182805461185e90612560565b80156118a95780601f10611880576101008083540402835291602001916118a9565b820191905f5260205f20905b81548152906001019060200180831161188c57829003601f168201915b505050505092508180546118bc90612560565b80601f01602080910402602001604051908101604052809291908181526020018280546118e890612560565b80156119335780601f1061190a57610100808354040283529160200191611933565b820191905f5260205f20905b81548152906001019060200180831161191657829003601f168201915b505050505091509650965096509650965096505091939550919395565b5f8054906101000a900473ffffffffffffffffffffffffffffffffffffffff1681565b5f151560075f3373ffffffffffffffffffffffffffffffffffffffff1673ffffffffffffffffffffffffffffffffffffffff1681526020019081526020015f2060030160029054906101000a900460ff16151514611a06576040517f08c379a00000000000000000000000000000000000000000000000000000000081526004016119fd90612ae4565b60405180910390fd5b5f6040518060c001604052803373ffffffffffffffffffffffffffffffffffffffff1681526020018481526020018381526020015f151581526020015f151581526020016001151581525090508060075f3373ffffffffffffffffffffffffffffffffffffffff1673ffffffffffffffffffffffffffffffffffffffff1681526020019081526020015f205f820151815f015f6101000a81548173ffffffffffffffffffffffffffffffffffffffff021916908373ffffffffffffffffffffffffffffffffffffffff1602179055506020820151816001019081611aea919061272d565b506040820151816002019081611b00919061272d565b506060820151816003015f6101000a81548160ff02191690831515021790555060808201518160030160016101000a81548160ff02191690831515021790555060a08201518160030160026101000a81548160ff021916908315150217905550905050600633908060018154018082558091505060019003905f5260205f20015f9091909190916101000a81548173ffffffffffffffffffffffffffffffffffffffff021916908373ffffffffffffffffffffffffffffffffffffffff160217905550600160025f828254611bd59190612472565b92505081905550505050565b508054611bed90612560565b5f825580601f10611bfe5750611c1b565b601f0160209004905f5260205f2090810190611c1a9190611c3c565b5b50565b5080545f8255905f5260205f2090810190611c399190611c3c565b50565b5b80821115611c53575f815f905550600101611c3d565b5090565b5f604051905090565b5f80fd5b5f80fd5b5f819050919050565b611c7a81611c68565b8114611c84575f80fd5b50565b5f81359050611c9581611c71565b92915050565b5f60208284031215611cb057611caf611c60565b5b5f611cbd84828501611c87565b91505092915050565b611ccf81611c68565b82525050565b5f602082019050611ce85f830184611cc6565b92915050565b5f80fd5b5f80fd5b5f601f19601f8301169050919050565b7f4e487b71000000000000000000000000000000000000000000000000000000005f52604160045260245ffd5b611d3c82611cf6565b810181811067ffffffffffffffff82111715611d5b57611d5a611d06565b5b80604052505050565b5f611d6d611c57565b9050611d798282611d33565b919050565b5f67ffffffffffffffff821115611d9857611d97611d06565b5b611da182611cf6565b9050602081019050919050565b828183375f83830152505050565b5f611dce611dc984611d7e565b611d64565b905082815260208101848484011115611dea57611de9611cf2565b5b611df5848285611dae565b509392505050565b5f82601f830112611e1157611e10611cee565b5b8135611e21848260208601611dbc565b91505092915050565b5f805f805f60a08688031215611e4357611e42611c60565b5b5f86013567ffffffffffffffff811115611e6057611e5f611c64565b5b611e6c88828901611dfd565b955050602086013567ffffffffffffffff811115611e8d57611e8c611c64565b5b611e9988828901611dfd565b945050604086013567ffffffffffffffff811115611eba57611eb9611c64565b5b611ec688828901611dfd565b935050606086013567ffffffffffffffff811115611ee757611ee6611c64565b5b611ef388828901611dfd565b925050608086013567ffffffffffffffff811115611f1457611f13611c64565b5b611f2088828901611dfd565b9150509295509295909350565b5f8060408385031215611f4357611f42611c60565b5b5f83013567ffffffffffffffff811115611f6057611f5f611c64565b5b611f6c85828601611dfd565b925050602083013567ffffffffffffffff811115611f8d57611f8c611c64565b5b611f9985828601611dfd565b9150509250929050565b5f8115159050919050565b611fb781611fa3565b8114611fc1575f80fd5b50565b5f81359050611fd281611fae565b92915050565b5f73ffffffffffffffffffffffffffffffffffffffff82169050919050565b5f61200182611fd8565b9050919050565b61201181611ff7565b811461201b575f80fd5b50565b5f8135905061202c81612008565b92915050565b5f806040838503121561204857612047611c60565b5b5f61205585828601611fc4565b92505060206120668582860161201e565b9150509250929050565b5f6020828403121561208557612084611c60565b5b5f6120928482850161201e565b91505092915050565b6120a481611ff7565b82525050565b5f81519050919050565b5f82825260208201905092915050565b5f5b838110156120e15780820151818401526020810190506120c6565b5f8484015250505050565b5f6120f6826120aa565b61210081856120b4565b93506121108185602086016120c4565b61211981611cf6565b840191505092915050565b61212d81611fa3565b82525050565b5f60c0820190506121465f83018961209b565b818103602083015261215881886120ec565b9050818103604083015261216c81876120ec565b905061217b6060830186612124565b6121886080830185612124565b61219560a0830184612124565b979650505050505050565b5f60c0820190508181035f8301526121b881896120ec565b905081810360208301526121cc81886120ec565b905081810360408301526121e081876120ec565b905081810360608301526121f481866120ec565b9050818103608083015261220881856120ec565b905061221760a0830184612124565b979650505050505050565b5f6080820190506122355f830187611cc6565b818103602083015261224781866120ec565b9050818103604083015261225b81856120ec565b905061226a6060830184611cc6565b95945050505050565b5f6020820190506122865f830184612124565b92915050565b5f60208201905061229f5f83018461209b565b92915050565b7f416c726561647920766f746564000000000000000000000000000000000000005f82015250565b5f6122d9600d836120b4565b91506122e4826122a5565b602082019050919050565b5f6020820190508181035f830152612306816122cd565b9050919050565b7f4e6f7420766572696669656400000000000000000000000000000000000000005f82015250565b5f612341600c836120b4565b915061234c8261230d565b602082019050919050565b5f6020820190508181035f83015261236e81612335565b9050919050565b7f456c656374696f6e206e6f7420737461727465640000000000000000000000005f82015250565b5f6123a96014836120b4565b91506123b482612375565b602082019050919050565b5f6020820190508181035f8301526123d68161239d565b9050919050565b7f456c656374696f6e20656e6465640000000000000000000000000000000000005f82015250565b5f612411600e836120b4565b915061241c826123dd565b602082019050919050565b5f6020820190508181035f83015261243e81612405565b9050919050565b7f4e487b71000000000000000000000000000000000000000000000000000000005f52601160045260245ffd5b5f61247c82611c68565b915061248783611c68565b925082820190508082111561249f5761249e612445565b5b92915050565b7f4f6e6c79207468652061646d696e2063616e20706572666f726d2074686973205f8201527f616374696f6e2e00000000000000000000000000000000000000000000000000602082015250565b5f6124ff6027836120b4565b915061250a826124a5565b604082019050919050565b5f6020820190508181035f83015261252c816124f3565b9050919050565b7f4e487b71000000000000000000000000000000000000000000000000000000005f52602260045260245ffd5b5f600282049050600182168061257757607f821691505b60208210810361258a57612589612533565b5b50919050565b5f819050815f5260205f209050919050565b5f6020601f8301049050919050565b5f82821b905092915050565b5f600883026125ec7fffffffffffffffffffffffffffffffffffffffffffffffffffffffffffffffff826125b1565b6125f686836125b1565b95508019841693508086168417925050509392505050565b5f819050919050565b5f61263161262c61262784611c68565b61260e565b611c68565b9050919050565b5f819050919050565b61264a83612617565b61265e61265682612638565b8484546125bd565b825550505050565b5f90565b612672612666565b61267d818484612641565b505050565b5b818110156126a0576126955f8261266a565b600181019050612683565b5050565b601f8211156126e5576126b681612590565b6126bf846125a2565b810160208510156126ce578190505b6126e26126da856125a2565b830182612682565b50505b505050565b5f82821c905092915050565b5f6127055f19846008026126ea565b1980831691505092915050565b5f61271d83836126f6565b9150826002028217905092915050565b612736826120aa565b67ffffffffffffffff81111561274f5761274e611d06565b5b6127598254612560565b6127648282856126a4565b5f60209050601f831160018114612795575f8415612783578287015190505b61278d8582612712565b8655506127f4565b601f1984166127a386612590565b5f5b828110156127ca578489015182556001820191506020850194506020810190506127a5565b868310156127e757848901516127e3601f8916826126f6565b8355505b6001600288020188555050505b505050505050565b7f4e487b71000000000000000000000000000000000000000000000000000000005f52603260045260245ffd5b7f456c656374696f6e206973207374696c6c2061637469766500000000000000005f82015250565b5f61285d6018836120b4565b915061286882612829565b602082019050919050565b5f6020820190508181035f83015261288a81612851565b9050919050565b5f61289b82611c68565b91506128a683611c68565b92508282039050818111156128be576128bd612445565b5b92915050565b5f815490506128d281612560565b9050919050565b8181036128e75750506129bc565b6128f0826128c4565b67ffffffffffffffff81111561290957612908611d06565b5b6129138254612560565b61291e8282856126a4565b5f601f83116001811461294b575f8415612939578287015490505b6129438582612712565b8655506129b5565b601f19841661295987612590565b965061296486612590565b5f5b8281101561298b57848901548255600182019150600185019450602081019050612966565b868310156129a857848901546129a4601f8916826126f6565b8355505b6001600288020188555050505b5050505050505b565b5f6129c882611c68565b91507fffffffffffffffffffffffffffffffffffffffffffffffffffffffffffffffff82036129fa576129f9612445565b5b600182019050919050565b7f4e487b71000000000000000000000000000000000000000000000000000000005f52603160045260245ffd5b7f456c656374696f6e206973206e6f7420796574206f76657200000000000000005f82015250565b5f612a666018836120b4565b9150612a7182612a32565b602082019050919050565b5f6020820190508181035f830152612a9381612a5a565b9050919050565b7f596f752061726520616c726561647920726567697374657265642e00000000005f82015250565b5f612ace601b836120b4565b9150612ad982612a9a565b602082019050919050565b5f6020820190508181035f830152612afb81612ac2565b905091905056fea2646970667358221220ad7419d9b159aa07d9fc64fabd983994a2313cf0d33aaad97f3c3430a515d59f64736f6c63430008150033",
  "immutableReferences": {},
  "source": "// SPDX-License-Identifier: UNLICENSED\npragma solidity ^0.8.21;\n\ncontract Election {\n    address public admin;\n    uint256 candidateCount;\n    uint256 voterCount;\n    bool start;\n    bool end;\n\n    constructor(address _admin) {\n        admin = _admin;\n        candidateCount = 0;\n        voterCount = 0;\n        start = false;\n        end = false;\n    }\n\n    modifier onlyAdmin() {\n        require(msg.sender == admin, \"Only the admin can perform this action.\");\n        _;\n    }\n\n    struct Candidate {\n        uint256 candidateId;\n        string header;\n        string slogan;\n        uint256 voteCount;\n    }\n\n    mapping(uint256 => Candidate) public candidateDetails;\n\n    function addCandidate(string memory _header, string memory _slogan)\n        public\n        onlyAdmin\n    {\n        Candidate memory newCandidate = Candidate({\n            candidateId: candidateCount,\n            header: _header,\n            slogan: _slogan,\n            voteCount: 0\n        });\n        candidateDetails[candidateCount] = newCandidate;\n        candidateCount += 1;\n    }\n\n    struct ElectionDetails {\n        string adminName;\n        string adminEmail;\n        string adminTitle;\n        string electionTitle;\n        string organizationTitle;\n        bool isActive;\n    }\n\n    ElectionDetails[] public elections;\n\n    function setElectionDetails(\n        string memory _adminName,\n        string memory _adminEmail,\n        string memory _adminTitle,\n        string memory _electionTitle,\n        string memory _organizationTitle\n    )\n        public\n        onlyAdmin\n    {\n        ElectionDetails memory newElection = ElectionDetails({\n            adminName: _adminName,\n            adminEmail: _adminEmail,\n            adminTitle: _adminTitle,\n            electionTitle: _electionTitle,\n            organizationTitle: _organizationTitle,\n            isActive: true\n        });\n        elections.push(newElection);\n        start = true;\n        end = false;\n    }\n\n    function getElectionDetails(uint256 electionIndex)\n        public\n        view\n        returns (string memory adminName,\n                 string memory adminEmail,\n                 string memory adminTitle,\n                 string memory electionTitle,\n                 string memory organizationTitle,\n                 bool isActive)\n    {\n        ElectionDetails storage election = elections[electionIndex];\n        return (\n            election.adminName,\n            election.adminEmail,\n            election.adminTitle,\n            election.electionTitle,\n            election.organizationTitle,\n            election.isActive\n        );\n    }\n\n    function getTotalElections() public view returns (uint256) {\n        return elections.length;\n    }\n\n    function getTotalCandidate() public view returns (uint256) {\n        return candidateCount;\n    }\n\n    function getTotalVoter() public view returns (uint256) {\n        return voterCount;\n    }\n\n    struct Voter {\n        address voterAddress;\n        string name;\n        string phone;\n        bool isVerified;\n        bool hasVoted;\n        bool isRegistered;\n    }\n\n    address[] public voters;\n    mapping(address => Voter) public voterDetails;\n\n    function registerAsVoter(string memory _name, string memory _phone) public {\n        require(voterDetails[msg.sender].isRegistered == false, \"You are already registered.\");\n\n        Voter memory newVoter = Voter({\n            voterAddress: msg.sender,\n            name: _name,\n            phone: _phone,\n            hasVoted: false,\n            isVerified: false,\n            isRegistered: true\n        });\n        voterDetails[msg.sender] = newVoter;\n        voters.push(msg.sender);\n        voterCount += 1;\n    }\n\n    function verifyVoter(bool _verifiedStatus, address voterAddress)\n        public\n        onlyAdmin\n    {\n        voterDetails[voterAddress].isVerified = _verifiedStatus;\n    }\n\n    function vote(uint256 candidateId) public {\n        require(voterDetails[msg.sender].hasVoted == false, \"Already voted\");\n        require(voterDetails[msg.sender].isVerified == true, \"Not verified\");\n        require(start == true, \"Election not started\");\n        require(end == false, \"Election ended\");\n\n        candidateDetails[candidateId].voteCount += 1;\n        voterDetails[msg.sender].hasVoted = true;\n    }\n\n    function endElection(uint256 electionIndex) public onlyAdmin {\n        elections[electionIndex].isActive = false;\n        end = true;\n        start = false;\n    }\n\n    function removeElection(uint256 electionIndex) public onlyAdmin {\n        require(!elections[electionIndex].isActive, \"Election is still active\");\n\n        for (uint i = electionIndex; i < elections.length - 1; i++) {\n            elections[i] = elections[i + 1];\n        }\n        elections.pop();\n    }\n\n    function resetElection() public onlyAdmin {\n        require(end == true, \"Election is not yet over\");\n\n        for (uint256 i = 0; i < candidateCount; i++) {\n            delete candidateDetails[i];\n        }\n        candidateCount = 0;\n\n        for (uint256 i = 0; i < voters.length; i++) {\n            delete voterDetails[voters[i]];\n        }\n        delete voters; //  Corrected line to reset the array\n        voterCount = 0;\n\n        start = false;\n        end = false;\n    }\n\n    function getStart() public view returns (bool) {\n        return start;\n    }\n\n    function getEnd() public view returns (bool) {\n        return end;\n    }\n}\n",
  "sourcePath": "C:\\Users\\nshas\\OneDrive\\Desktop\\prototype\\contracts\\Election.sol",
  "compiler": {
    "name": "solc",
    "version": "0.8.21+commit.d9974bed.Emscripten.clang"
  },
  "schemaVersion": "3.4.16",
  "updatedAt": "2025-05-18T06:51:27.318Z",
  "networkType": "ethereum",
  "devdoc": {
    "kind": "dev",
    "methods": {},
    "version": 1
  },
  "userdoc": {
    "kind": "user",
    "methods": {},
    "version": 1
  }
}