{
  "contractName": "Election",
  "abi": [
    {
      "inputs": [
        {
          "internalType": "address",
          "name": "_admin",
          "type": "address"
        }
      ],
      "stateMutability": "nonpayable",
      "type": "constructor"
    },
    {
      "inputs": [],
      "name": "admin",
      "outputs": [
        {
          "internalType": "address",
          "name": "",
          "type": "address"
        }
      ],
      "stateMutability": "view",
      "type": "function",
      "constant": true
    },
    {
      "inputs": [],
      "name": "candidateCount",
      "outputs": [
        {
          "internalType": "uint256",
          "name": "",
          "type": "uint256"
        }
      ],
      "stateMutability": "view",
      "type": "function",
      "constant": true
    },
    {
      "inputs": [
        {
          "internalType": "uint256",
          "name": "",
          "type": "uint256"
        }
      ],
      "name": "candidateDetails",
      "outputs": [
        {
          "internalType": "uint256",
          "name": "candidateId",
          "type": "uint256"
        },
        {
          "internalType": "string",
          "name": "header",
          "type": "string"
        },
        {
          "internalType": "string",
          "name": "slogan",
          "type": "string"
        },
        {
          "internalType": "uint256",
          "name": "voteCount",
          "type": "uint256"
        }
      ],
      "stateMutability": "view",
      "type": "function",
      "constant": true
    },
    {
      "inputs": [],
      "name": "currentElection",
      "outputs": [
        {
          "internalType": "string",
          "name": "electionTitle",
          "type": "string"
        },
        {
          "internalType": "string",
          "name": "adminName",
          "type": "string"
        },
        {
          "internalType": "string",
          "name": "adminEmail",
          "type": "string"
        },
        {
          "internalType": "string",
          "name": "adminTitle",
          "type": "string"
        },
        {
          "internalType": "string",
          "name": "organizationTitle",
          "type": "string"
        },
        {
          "internalType": "bool",
          "name": "isActive",
          "type": "bool"
        }
      ],
      "stateMutability": "view",
      "type": "function",
      "constant": true
    },
    {
      "inputs": [],
      "name": "end",
      "outputs": [
        {
          "internalType": "bool",
          "name": "",
          "type": "bool"
        }
      ],
      "stateMutability": "view",
      "type": "function",
      "constant": true
    },
    {
      "inputs": [],
      "name": "start",
      "outputs": [
        {
          "internalType": "bool",
          "name": "",
          "type": "bool"
        }
      ],
      "stateMutability": "view",
      "type": "function",
      "constant": true
    },
    {
      "inputs": [],
      "name": "voterCount",
      "outputs": [
        {
          "internalType": "uint256",
          "name": "",
          "type": "uint256"
        }
      ],
      "stateMutability": "view",
      "type": "function",
      "constant": true
    },
    {
      "inputs": [
        {
          "internalType": "address",
          "name": "",
          "type": "address"
        }
      ],
      "name": "voterDetails",
      "outputs": [
        {
          "internalType": "address",
          "name": "voterAddress",
          "type": "address"
        },
        {
          "internalType": "string",
          "name": "name",
          "type": "string"
        },
        {
          "internalType": "string",
          "name": "phone",
          "type": "string"
        },
        {
          "internalType": "bool",
          "name": "isVerified",
          "type": "bool"
        },
        {
          "internalType": "bool",
          "name": "hasVoted",
          "type": "bool"
        },
        {
          "internalType": "bool",
          "name": "isRegistered",
          "type": "bool"
        }
      ],
      "stateMutability": "view",
      "type": "function",
      "constant": true
    },
    {
      "inputs": [
        {
          "internalType": "uint256",
          "name": "",
          "type": "uint256"
        }
      ],
      "name": "voters",
      "outputs": [
        {
          "internalType": "address",
          "name": "",
          "type": "address"
        }
      ],
      "stateMutability": "view",
      "type": "function",
      "constant": true
    },
    {
      "inputs": [
        {
          "internalType": "string",
          "name": "_header",
          "type": "string"
        },
        {
          "internalType": "string",
          "name": "_slogan",
          "type": "string"
        }
      ],
      "name": "addCandidate",
      "outputs": [],
      "stateMutability": "nonpayable",
      "type": "function"
    },
    {
      "inputs": [
        {
          "internalType": "string",
          "name": "_electionTitle",
          "type": "string"
        },
        {
          "internalType": "string",
          "name": "_adminName",
          "type": "string"
        },
        {
          "internalType": "string",
          "name": "_adminEmail",
          "type": "string"
        },
        {
          "internalType": "string",
          "name": "_adminTitle",
          "type": "string"
        },
        {
          "internalType": "string",
          "name": "_organizationTitle",
          "type": "string"
        }
      ],
      "name": "setElectionDetails",
      "outputs": [],
      "stateMutability": "nonpayable",
      "type": "function"
    },
    {
      "inputs": [],
      "name": "getElectionDetails",
      "outputs": [
        {
          "internalType": "string",
          "name": "",
          "type": "string"
        },
        {
          "internalType": "string",
          "name": "",
          "type": "string"
        },
        {
          "internalType": "string",
          "name": "",
          "type": "string"
        },
        {
          "internalType": "string",
          "name": "",
          "type": "string"
        },
        {
          "internalType": "string",
          "name": "",
          "type": "string"
        },
        {
          "internalType": "bool",
          "name": "",
          "type": "bool"
        }
      ],
      "stateMutability": "view",
      "type": "function",
      "constant": true
    },
    {
      "inputs": [],
      "name": "getTotalCandidates",
      "outputs": [
        {
          "internalType": "uint256",
          "name": "",
          "type": "uint256"
        }
      ],
      "stateMutability": "view",
      "type": "function",
      "constant": true
    },
    {
      "inputs": [],
      "name": "getTotalVoters",
      "outputs": [
        {
          "internalType": "uint256",
          "name": "",
          "type": "uint256"
        }
      ],
      "stateMutability": "view",
      "type": "function",
      "constant": true
    },
    {
      "inputs": [
        {
          "internalType": "string",
          "name": "_name",
          "type": "string"
        },
        {
          "internalType": "string",
          "name": "_phone",
          "type": "string"
        }
      ],
      "name": "registerAsVoter",
      "outputs": [],
      "stateMutability": "nonpayable",
      "type": "function"
    },
    {
      "inputs": [
        {
          "internalType": "bool",
          "name": "_verifiedStatus",
          "type": "bool"
        },
        {
          "internalType": "address",
          "name": "voterAddress",
          "type": "address"
        }
      ],
      "name": "verifyVoter",
      "outputs": [],
      "stateMutability": "nonpayable",
      "type": "function"
    },
    {
      "inputs": [
        {
          "internalType": "uint256",
          "name": "candidateId",
          "type": "uint256"
        }
      ],
      "name": "vote",
      "outputs": [],
      "stateMutability": "nonpayable",
      "type": "function"
    },
    {
      "inputs": [],
      "name": "endElection",
      "outputs": [],
      "stateMutability": "nonpayable",
      "type": "function"
    },
    {
      "inputs": [],
      "name": "resetElection",
      "outputs": [],
      "stateMutability": "nonpayable",
      "type": "function"
    },
    {
      "inputs": [],
      "name": "getStart",
      "outputs": [
        {
          "internalType": "bool",
          "name": "",
          "type": "bool"
        }
      ],
      "stateMutability": "view",
      "type": "function",
      "constant": true
    },
    {
      "inputs": [],
      "name": "getEnd",
      "outputs": [
        {
          "internalType": "bool",
          "name": "",
          "type": "bool"
        }
      ],
      "stateMutability": "view",
      "type": "function",
      "constant": true
    }
  ],
  "bytecode": "0x608060405234801562000010575f80fd5b506040516200284f3803806200284f833981810160405281019062000036919062000122565b805f806101000a81548173ffffffffffffffffffffffffffffffffffffffff021916908373ffffffffffffffffffffffffffffffffffffffff1602179055505f6001819055505f6002819055505f60035f6101000a81548160ff0219169083151502179055505f600360016101000a81548160ff0219169083151502179055505062000152565b5f80fd5b5f73ffffffffffffffffffffffffffffffffffffffff82169050919050565b5f620000ec82620000c1565b9050919050565b620000fe81620000e0565b811462000109575f80fd5b50565b5f815190506200011c81620000f3565b92915050565b5f602082840312156200013a5762000139620000bd565b5b5f62000149848285016200010c565b91505092915050565b6126ef80620001605f395ff3fe608060405234801561000f575f80fd5b5060043610610135575f3560e01c80639f05a36d116100b6578063e8f305231161007a578063e8f305231461031d578063ed836bc314610327578063efbe1c1c1461034a578063f851a44014610368578063fcae83a714610386578063fee0d19a146103a957610135565b80639f05a36d14610275578063a9a981a314610293578063be9a6555146102b1578063c5292c67146102cf578063da58c7d9146102ed57610135565b8063506b8e0a116100fd578063506b8e0a146101c95780635938750d146101e557806359f784681461021a5780636247e53214610224578063793cf2181461025757610135565b80630121b93f146101395780630deb56ab14610155578063253e74e21461017357806326541b561461018f57806342169e48146101ab575b5f80fd5b610153600480360381019061014e919061194b565b6103c5565b005b61015d61061c565b60405161016a9190611985565b60405180910390f35b61018d60048036038101906101889190611ada565b610625565b005b6101a960048036038101906101a49190611bdd565b6107fc565b005b6101b3610976565b6040516101c09190611985565b60405180910390f35b6101e360048036038101906101de9190611ce2565b61097c565b005b6101ff60048036038101906101fa9190611d20565b610a64565b60405161021196959493929190611de3565b60405180910390f35b610222610bed565b005b61023e6004803603810190610239919061194b565b610d20565b60405161024e9493929190611e50565b60405180910390f35b61025f610e58565b60405161026c9190611985565b60405180910390f35b61027d610e61565b60405161028a9190611ea1565b60405180910390f35b61029b610e77565b6040516102a89190611985565b60405180910390f35b6102b9610e7d565b6040516102c69190611ea1565b60405180910390f35b6102d7610e8f565b6040516102e49190611ea1565b60405180910390f35b6103076004803603810190610302919061194b565b610ea4565b6040516103149190611eba565b60405180910390f35b610325610edf565b005b61032f61105f565b60405161034196959493929190611ed3565b60405180910390f35b610352611357565b60405161035f9190611ea1565b60405180910390f35b61037061136a565b60405161037d9190611eba565b60405180910390f35b61038e61138d565b6040516103a096959493929190611ed3565b60405180910390f35b6103c360048036038101906103be9190611bdd565b611660565b005b5f1515600c5f3373ffffffffffffffffffffffffffffffffffffffff1673ffffffffffffffffffffffffffffffffffffffff1681526020019081526020015f2060030160019054906101000a900460ff16151514610458576040517f08c379a000000000000000000000000000000000000000000000000000000000815260040161044f90611f9f565b60405180910390fd5b60011515600c5f3373ffffffffffffffffffffffffffffffffffffffff1673ffffffffffffffffffffffffffffffffffffffff1681526020019081526020015f206003015f9054906101000a900460ff161515146104eb576040517f08c379a00000000000000000000000000000000000000000000000000000000081526004016104e290612007565b60405180910390fd5b6001151560035f9054906101000a900460ff16151514610540576040517f08c379a00000000000000000000000000000000000000000000000000000000081526004016105379061206f565b60405180910390fd5b5f1515600360019054906101000a900460ff16151514610595576040517f08c379a000000000000000000000000000000000000000000000000000000000815260040161058c906120d7565b60405180910390fd5b600160045f8381526020019081526020015f206003015f8282546105b99190612122565b925050819055506001600c5f3373ffffffffffffffffffffffffffffffffffffffff1673ffffffffffffffffffffffffffffffffffffffff1681526020019081526020015f2060030160016101000a81548160ff02191690831515021790555050565b5f600154905090565b5f8054906101000a900473ffffffffffffffffffffffffffffffffffffffff1673ffffffffffffffffffffffffffffffffffffffff163373ffffffffffffffffffffffffffffffffffffffff16146106b2576040517f08c379a00000000000000000000000000000000000000000000000000000000081526004016106a9906121c5565b60405180910390fd5b60035f9054906101000a900460ff1615610701576040517f08c379a00000000000000000000000000000000000000000000000000000000081526004016106f890612253565b60405180910390fd5b6040518060c001604052808681526020018581526020018481526020018381526020018281526020016001151581525060055f820151815f019081610746919061246b565b50602082015181600101908161075c919061246b565b506040820151816002019081610772919061246b565b506060820151816003019081610788919061246b565b50608082015181600401908161079e919061246b565b5060a0820151816005015f6101000a81548160ff021916908315150217905550905050600160035f6101000a81548160ff0219169083151502179055505f600360016101000a81548160ff0219169083151502179055505050505050565b5f8054906101000a900473ffffffffffffffffffffffffffffffffffffffff1673ffffffffffffffffffffffffffffffffffffffff163373ffffffffffffffffffffffffffffffffffffffff1614610889576040517f08c379a0000000000000000000000000000000000000000000000000000000008152600401610880906121c5565b60405180910390fd5b6001151560035f9054906101000a900460ff161515146108de576040517f08c379a00000000000000000000000000000000000000000000000000000000081526004016108d590612584565b60405180910390fd5b5f604051806080016040528060015481526020018481526020018381526020015f81525090508060045f60015481526020019081526020015f205f820151815f01556020820151816001019081610935919061246b565b50604082015181600201908161094b919061246b565b50606082015181600301559050506001805f82825461096a9190612122565b92505081905550505050565b60025481565b5f8054906101000a900473ffffffffffffffffffffffffffffffffffffffff1673ffffffffffffffffffffffffffffffffffffffff163373ffffffffffffffffffffffffffffffffffffffff1614610a09576040517f08c379a0000000000000000000000000000000000000000000000000000000008152600401610a00906121c5565b60405180910390fd5b81600c5f8373ffffffffffffffffffffffffffffffffffffffff1673ffffffffffffffffffffffffffffffffffffffff1681526020019081526020015f206003015f6101000a81548160ff0219169083151502179055505050565b600c602052805f5260405f205f91509050805f015f9054906101000a900473ffffffffffffffffffffffffffffffffffffffff1690806001018054610aa89061229e565b80601f0160208091040260200160405190810160405280929190818152602001828054610ad49061229e565b8015610b1f5780601f10610af657610100808354040283529160200191610b1f565b820191905f5260205f20905b815481529060010190602001808311610b0257829003601f168201915b505050505090806002018054610b349061229e565b80601f0160208091040260200160405190810160405280929190818152602001828054610b609061229e565b8015610bab5780601f10610b8257610100808354040283529160200191610bab565b820191905f5260205f20905b815481529060010190602001808311610b8e57829003601f168201915b505050505090806003015f9054906101000a900460ff16908060030160019054906101000a900460ff16908060030160029054906101000a900460ff16905086565b5f8054906101000a900473ffffffffffffffffffffffffffffffffffffffff1673ffffffffffffffffffffffffffffffffffffffff163373ffffffffffffffffffffffffffffffffffffffff1614610c7a576040517f08c379a0000000000000000000000000000000000000000000000000000000008152600401610c71906121c5565b60405180910390fd5b6001151560035f9054906101000a900460ff16151514610ccf576040517f08c379a0000000000000000000000000000000000000000000000000000000008152600401610cc69061206f565b60405180910390fd5b6001600360016101000a81548160ff0219169083151502179055505f60035f6101000a81548160ff0219169083151502179055505f600580015f6101000a81548160ff021916908315150217905550565b6004602052805f5260405f205f91509050805f015490806001018054610d459061229e565b80601f0160208091040260200160405190810160405280929190818152602001828054610d719061229e565b8015610dbc5780601f10610d9357610100808354040283529160200191610dbc565b820191905f5260205f20905b815481529060010190602001808311610d9f57829003601f168201915b505050505090806002018054610dd19061229e565b80601f0160208091040260200160405190810160405280929190818152602001828054610dfd9061229e565b8015610e485780601f10610e1f57610100808354040283529160200191610e48565b820191905f5260205f20905b815481529060010190602001808311610e2b57829003601f168201915b5050505050908060030154905084565b5f600254905090565b5f600360019054906101000a900460ff16905090565b60015481565b60035f9054906101000a900460ff1681565b5f60035f9054906101000a900460ff16905090565b600b8181548110610eb3575f80fd5b905f5260205f20015f915054906101000a900473ffffffffffffffffffffffffffffffffffffffff1681565b5f8054906101000a900473ffffffffffffffffffffffffffffffffffffffff1673ffffffffffffffffffffffffffffffffffffffff163373ffffffffffffffffffffffffffffffffffffffff1614610f6c576040517f08c379a0000000000000000000000000000000000000000000000000000000008152600401610f63906121c5565b60405180910390fd5b60011515600360019054906101000a900460ff16151514610fc2576040517f08c379a0000000000000000000000000000000000000000000000000000000008152600401610fb9906125ec565b60405180910390fd5b5f5b600154811015610ffa575f60045f8381526020019081526020015f20600301819055508080610ff29061260a565b915050610fc4565b50600b5f61100891906118ce565b5f6002819055505f60035f6101000a81548160ff0219169083151502179055505f600360016101000a81548160ff0219169083151502179055505f600580015f6101000a81548160ff021916908315150217905550565b60608060608060605f60055f016005600101600560020160056003016005600401600580015f9054906101000a900460ff1685805461109d9061229e565b80601f01602080910402602001604051908101604052809291908181526020018280546110c99061229e565b80156111145780601f106110eb57610100808354040283529160200191611114565b820191905f5260205f20905b8154815290600101906020018083116110f757829003601f168201915b505050505095508480546111279061229e565b80601f01602080910402602001604051908101604052809291908181526020018280546111539061229e565b801561119e5780601f106111755761010080835404028352916020019161119e565b820191905f5260205f20905b81548152906001019060200180831161118157829003601f168201915b505050505094508380546111b19061229e565b80601f01602080910402602001604051908101604052809291908181526020018280546111dd9061229e565b80156112285780601f106111ff57610100808354040283529160200191611228565b820191905f5260205f20905b81548152906001019060200180831161120b57829003601f168201915b5050505050935082805461123b9061229e565b80601f01602080910402602001604051908101604052809291908181526020018280546112679061229e565b80156112b25780601f10611289576101008083540402835291602001916112b2565b820191905f5260205f20905b81548152906001019060200180831161129557829003601f168201915b505050505092508180546112c59061229e565b80601f01602080910402602001604051908101604052809291908181526020018280546112f19061229e565b801561133c5780601f106113135761010080835404028352916020019161133c565b820191905f5260205f20905b81548152906001019060200180831161131f57829003601f168201915b50505050509150955095509550955095509550909192939495565b600360019054906101000a900460ff1681565b5f8054906101000a900473ffffffffffffffffffffffffffffffffffffffff1681565b6005805f01805461139d9061229e565b80601f01602080910402602001604051908101604052809291908181526020018280546113c99061229e565b80156114145780601f106113eb57610100808354040283529160200191611414565b820191905f5260205f20905b8154815290600101906020018083116113f757829003601f168201915b5050505050908060010180546114299061229e565b80601f01602080910402602001604051908101604052809291908181526020018280546114559061229e565b80156114a05780601f10611477576101008083540402835291602001916114a0565b820191905f5260205f20905b81548152906001019060200180831161148357829003601f168201915b5050505050908060020180546114b59061229e565b80601f01602080910402602001604051908101604052809291908181526020018280546114e19061229e565b801561152c5780601f106115035761010080835404028352916020019161152c565b820191905f5260205f20905b81548152906001019060200180831161150f57829003601f168201915b5050505050908060030180546115419061229e565b80601f016020809104026020016040519081016040528092919081815260200182805461156d9061229e565b80156115b85780601f1061158f576101008083540402835291602001916115b8565b820191905f5260205f20905b81548152906001019060200180831161159b57829003601f168201915b5050505050908060040180546115cd9061229e565b80601f01602080910402602001604051908101604052809291908181526020018280546115f99061229e565b80156116445780601f1061161b57610100808354040283529160200191611644565b820191905f5260205f20905b81548152906001019060200180831161162757829003601f168201915b505050505090806005015f9054906101000a900460ff16905086565b5f1515600c5f3373ffffffffffffffffffffffffffffffffffffffff1673ffffffffffffffffffffffffffffffffffffffff1681526020019081526020015f2060030160029054906101000a900460ff161515146116f3576040517f08c379a00000000000000000000000000000000000000000000000000000000081526004016116ea9061269b565b60405180910390fd5b5f6040518060c001604052803373ffffffffffffffffffffffffffffffffffffffff1681526020018481526020018381526020015f151581526020015f1515815260200160011515815250905080600c5f3373ffffffffffffffffffffffffffffffffffffffff1673ffffffffffffffffffffffffffffffffffffffff1681526020019081526020015f205f820151815f015f6101000a81548173ffffffffffffffffffffffffffffffffffffffff021916908373ffffffffffffffffffffffffffffffffffffffff16021790555060208201518160010190816117d7919061246b565b5060408201518160020190816117ed919061246b565b506060820151816003015f6101000a81548160ff02191690831515021790555060808201518160030160016101000a81548160ff02191690831515021790555060a08201518160030160026101000a81548160ff021916908315150217905550905050600b33908060018154018082558091505060019003905f5260205f20015f9091909190916101000a81548173ffffffffffffffffffffffffffffffffffffffff021916908373ffffffffffffffffffffffffffffffffffffffff160217905550600160025f8282546118c29190612122565b92505081905550505050565b5080545f8255905f5260205f20908101906118e991906118ec565b50565b5b80821115611903575f815f9055506001016118ed565b5090565b5f604051905090565b5f80fd5b5f80fd5b5f819050919050565b61192a81611918565b8114611934575f80fd5b50565b5f8135905061194581611921565b92915050565b5f602082840312156119605761195f611910565b5b5f61196d84828501611937565b91505092915050565b61197f81611918565b82525050565b5f6020820190506119985f830184611976565b92915050565b5f80fd5b5f80fd5b5f601f19601f8301169050919050565b7f4e487b71000000000000000000000000000000000000000000000000000000005f52604160045260245ffd5b6119ec826119a6565b810181811067ffffffffffffffff82111715611a0b57611a0a6119b6565b5b80604052505050565b5f611a1d611907565b9050611a2982826119e3565b919050565b5f67ffffffffffffffff821115611a4857611a476119b6565b5b611a51826119a6565b9050602081019050919050565b828183375f83830152505050565b5f611a7e611a7984611a2e565b611a14565b905082815260208101848484011115611a9a57611a996119a2565b5b611aa5848285611a5e565b509392505050565b5f82601f830112611ac157611ac061199e565b5b8135611ad1848260208601611a6c565b91505092915050565b5f805f805f60a08688031215611af357611af2611910565b5b5f86013567ffffffffffffffff811115611b1057611b0f611914565b5b611b1c88828901611aad565b955050602086013567ffffffffffffffff811115611b3d57611b3c611914565b5b611b4988828901611aad565b945050604086013567ffffffffffffffff811115611b6a57611b69611914565b5b611b7688828901611aad565b935050606086013567ffffffffffffffff811115611b9757611b96611914565b5b611ba388828901611aad565b925050608086013567ffffffffffffffff811115611bc457611bc3611914565b5b611bd088828901611aad565b9150509295509295909350565b5f8060408385031215611bf357611bf2611910565b5b5f83013567ffffffffffffffff811115611c1057611c0f611914565b5b611c1c85828601611aad565b925050602083013567ffffffffffffffff811115611c3d57611c3c611914565b5b611c4985828601611aad565b9150509250929050565b5f8115159050919050565b611c6781611c53565b8114611c71575f80fd5b50565b5f81359050611c8281611c5e565b92915050565b5f73ffffffffffffffffffffffffffffffffffffffff82169050919050565b5f611cb182611c88565b9050919050565b611cc181611ca7565b8114611ccb575f80fd5b50565b5f81359050611cdc81611cb8565b92915050565b5f8060408385031215611cf857611cf7611910565b5b5f611d0585828601611c74565b9250506020611d1685828601611cce565b9150509250929050565b5f60208284031215611d3557611d34611910565b5b5f611d4284828501611cce565b91505092915050565b611d5481611ca7565b82525050565b5f81519050919050565b5f82825260208201905092915050565b5f5b83811015611d91578082015181840152602081019050611d76565b5f8484015250505050565b5f611da682611d5a565b611db08185611d64565b9350611dc0818560208601611d74565b611dc9816119a6565b840191505092915050565b611ddd81611c53565b82525050565b5f60c082019050611df65f830189611d4b565b8181036020830152611e088188611d9c565b90508181036040830152611e1c8187611d9c565b9050611e2b6060830186611dd4565b611e386080830185611dd4565b611e4560a0830184611dd4565b979650505050505050565b5f608082019050611e635f830187611976565b8181036020830152611e758186611d9c565b90508181036040830152611e898185611d9c565b9050611e986060830184611976565b95945050505050565b5f602082019050611eb45f830184611dd4565b92915050565b5f602082019050611ecd5f830184611d4b565b92915050565b5f60c0820190508181035f830152611eeb8189611d9c565b90508181036020830152611eff8188611d9c565b90508181036040830152611f138187611d9c565b90508181036060830152611f278186611d9c565b90508181036080830152611f3b8185611d9c565b9050611f4a60a0830184611dd4565b979650505050505050565b7f416c726561647920766f746564000000000000000000000000000000000000005f82015250565b5f611f89600d83611d64565b9150611f9482611f55565b602082019050919050565b5f6020820190508181035f830152611fb681611f7d565b9050919050565b7f4e6f7420766572696669656400000000000000000000000000000000000000005f82015250565b5f611ff1600c83611d64565b9150611ffc82611fbd565b602082019050919050565b5f6020820190508181035f83015261201e81611fe5565b9050919050565b7f456c656374696f6e206e6f7420737461727465640000000000000000000000005f82015250565b5f612059601483611d64565b915061206482612025565b602082019050919050565b5f6020820190508181035f8301526120868161204d565b9050919050565b7f456c656374696f6e20656e6465640000000000000000000000000000000000005f82015250565b5f6120c1600e83611d64565b91506120cc8261208d565b602082019050919050565b5f6020820190508181035f8301526120ee816120b5565b9050919050565b7f4e487b71000000000000000000000000000000000000000000000000000000005f52601160045260245ffd5b5f61212c82611918565b915061213783611918565b925082820190508082111561214f5761214e6120f5565b5b92915050565b7f4f6e6c79207468652061646d696e2063616e20706572666f726d2074686973205f8201527f616374696f6e2e00000000000000000000000000000000000000000000000000602082015250565b5f6121af602783611d64565b91506121ba82612155565b604082019050919050565b5f6020820190508181035f8301526121dc816121a3565b9050919050565b7f416e20656c656374696f6e20697320616c726561647920696e2070726f6772655f8201527f73732e0000000000000000000000000000000000000000000000000000000000602082015250565b5f61223d602383611d64565b9150612248826121e3565b604082019050919050565b5f6020820190508181035f83015261226a81612231565b9050919050565b7f4e487b71000000000000000000000000000000000000000000000000000000005f52602260045260245ffd5b5f60028204905060018216806122b557607f821691505b6020821081036122c8576122c7612271565b5b50919050565b5f819050815f5260205f209050919050565b5f6020601f8301049050919050565b5f82821b905092915050565b5f6008830261232a7fffffffffffffffffffffffffffffffffffffffffffffffffffffffffffffffff826122ef565b61233486836122ef565b95508019841693508086168417925050509392505050565b5f819050919050565b5f61236f61236a61236584611918565b61234c565b611918565b9050919050565b5f819050919050565b61238883612355565b61239c61239482612376565b8484546122fb565b825550505050565b5f90565b6123b06123a4565b6123bb81848461237f565b505050565b5b818110156123de576123d35f826123a8565b6001810190506123c1565b5050565b601f821115612423576123f4816122ce565b6123fd846122e0565b8101602085101561240c578190505b612420612418856122e0565b8301826123c0565b50505b505050565b5f82821c905092915050565b5f6124435f1984600802612428565b1980831691505092915050565b5f61245b8383612434565b9150826002028217905092915050565b61247482611d5a565b67ffffffffffffffff81111561248d5761248c6119b6565b5b612497825461229e565b6124a28282856123e2565b5f60209050601f8311600181146124d3575f84156124c1578287015190505b6124cb8582612450565b865550612532565b601f1984166124e1866122ce565b5f5b82811015612508578489015182556001820191506020850194506020810190506124e3565b868310156125255784890151612521601f891682612434565b8355505b6001600288020188555050505b505050505050565b7f456c656374696f6e206e6f7420737461727465642e00000000000000000000005f82015250565b5f61256e601583611d64565b91506125798261253a565b602082019050919050565b5f6020820190508181035f83015261259b81612562565b9050919050565b7f456c656374696f6e20686173206e6f7420656e646564207965740000000000005f82015250565b5f6125d6601a83611d64565b91506125e1826125a2565b602082019050919050565b5f6020820190508181035f830152612603816125ca565b9050919050565b5f61261482611918565b91507fffffffffffffffffffffffffffffffffffffffffffffffffffffffffffffffff8203612646576126456120f5565b5b600182019050919050565b7f596f752061726520616c726561647920726567697374657265642e00000000005f82015250565b5f612685601b83611d64565b915061269082612651565b602082019050919050565b5f6020820190508181035f8301526126b281612679565b905091905056fea26469706673582212209a18e01ba1f44d82f3157c61b91b63826c72153cf41f665218e8f1a2229e485d64736f6c63430008150033",
  "immutableReferences": {},
  "source": "// SPDX-License-Identifier: UNLICENSED\npragma solidity ^0.8.21;\n\ncontract Election {\n    address public admin;\n    uint256 public candidateCount;\n    uint256 public voterCount;\n    bool public start;\n    bool public end;\n\n    // Constructor that sets the predefined admin address\n    constructor(address _admin) {\n        admin = _admin;\n        candidateCount = 0;\n        voterCount = 0;\n        start = false;\n        end = false;\n    }\n\n    modifier onlyAdmin() {\n        require(msg.sender == admin, \"Only the admin can perform this action.\");\n        _;\n    }\n\n    struct Candidate {\n        uint256 candidateId;\n        string header;\n        string slogan;\n        uint256 voteCount;\n    }\n\n    mapping(uint256 => Candidate) public candidateDetails;\n\n    // Add a candidate\n    function addCandidate(string memory _header, string memory _slogan) public onlyAdmin {\n        require(start == true, \"Election not started.\");\n        Candidate memory newCandidate = Candidate({\n            candidateId: candidateCount,\n            header: _header,\n            slogan: _slogan,\n            voteCount: 0\n        });\n        candidateDetails[candidateCount] = newCandidate;\n        candidateCount += 1;\n    }\n\n    struct ElectionDetails {\n        string electionTitle;\n        string adminName;\n        string adminEmail;\n        string adminTitle;\n        string organizationTitle;\n        bool isActive;\n    }\n\n    ElectionDetails public currentElection;\n\n    // Set the election details\n    function setElectionDetails(\n        string memory _electionTitle,\n        string memory _adminName,\n        string memory _adminEmail,\n        string memory _adminTitle,\n        string memory _organizationTitle\n    ) public onlyAdmin {\n        require(!start, \"An election is already in progress.\");\n        currentElection = ElectionDetails({\n            electionTitle: _electionTitle,\n            adminName: _adminName,\n            adminEmail: _adminEmail,\n            adminTitle: _adminTitle,\n            organizationTitle: _organizationTitle,\n            isActive: true\n        });\n        start = true;\n        end = false;\n    }\n\n    // Get the election details\n    function getElectionDetails() public view returns (string memory, string memory, string memory, string memory, string memory, bool) {\n        return (\n            currentElection.electionTitle,\n            currentElection.adminName,\n            currentElection.adminEmail,\n            currentElection.adminTitle,\n            currentElection.organizationTitle,\n            currentElection.isActive\n        );\n    }\n\n    function getTotalCandidates() public view returns (uint256) {\n        return candidateCount;\n    }\n\n    function getTotalVoters() public view returns (uint256) {\n        return voterCount;\n    }\n\n    struct Voter {\n        address voterAddress;\n        string name;\n        string phone;\n        bool isVerified;\n        bool hasVoted;\n        bool isRegistered;\n    }\n\n    address[] public voters;\n    mapping(address => Voter) public voterDetails;\n\n    // Register as a voter\n    function registerAsVoter(string memory _name, string memory _phone) public {\n        require(voterDetails[msg.sender].isRegistered == false, \"You are already registered.\");\n\n        Voter memory newVoter = Voter({\n            voterAddress: msg.sender,\n            name: _name,\n            phone: _phone,\n            hasVoted: false,\n            isVerified: false,\n            isRegistered: true\n        });\n        voterDetails[msg.sender] = newVoter;\n        voters.push(msg.sender);\n        voterCount += 1;\n    }\n\n    // Verify a voter\n    function verifyVoter(bool _verifiedStatus, address voterAddress) public onlyAdmin {\n        voterDetails[voterAddress].isVerified = _verifiedStatus;\n    }\n\n    // Vote for a candidate\n    function vote(uint256 candidateId) public {\n        require(voterDetails[msg.sender].hasVoted == false, \"Already voted\");\n        require(voterDetails[msg.sender].isVerified == true, \"Not verified\");\n        require(start == true, \"Election not started\");\n        require(end == false, \"Election ended\");\n\n        candidateDetails[candidateId].voteCount += 1;\n        voterDetails[msg.sender].hasVoted = true;\n    }\n\n    // End the election\n    function endElection() public onlyAdmin {\n        require(start == true, \"Election not started\");\n        end = true;\n        start = false;\n        currentElection.isActive = false;\n    }\n\n    // Reset election for new cycle (only after ending the election and showing results)\n    function resetElection() public onlyAdmin {\n        require(end == true, \"Election has not ended yet\");\n\n        // Reset vote counts but keep candidates\n        for (uint256 i = 0; i < candidateCount; i++) {\n            candidateDetails[i].voteCount = 0;  // Reset the vote count for candidates\n        }\n\n        // Reset voters' data for new election\n        delete voters;\n        voterCount = 0;\n\n        // Reset election status\n        start = false;\n        end = false;\n        currentElection.isActive = false;\n    }\n\n    // Get if the election has started\n    function getStart() public view returns (bool) {\n        return start;\n    }\n\n    // Get if the election has ended\n    function getEnd() public view returns (bool) {\n        return end;\n    }\n}\n",
  "sourcePath": "C:\\Users\\nshas\\OneDrive\\Desktop\\prototype\\contracts\\Election.sol",
  "compiler": {
    "name": "solc",
    "version": "0.8.21+commit.d9974bed.Emscripten.clang"
  },
  "schemaVersion": "3.4.16",
  "updatedAt": "2025-05-18T09:46:16.738Z",
  "networkType": "ethereum",
  "devdoc": {
    "kind": "dev",
    "methods": {},
    "version": 1
  },
  "userdoc": {
    "kind": "user",
    "methods": {},
    "version": 1
  }
}